:03000000020100FA
:0100030032CA
:01000B0032C2
:0100130032BA
:01001B0032B2
:01002B0032A2
:10010000D294D295D2B5D2B412017820B5FD30B5D3
:10011000FDC294C295758920758DFD759850D28E5B
:100120003098FDE599C298C28EB40135754C0075C2
:100130004B007FFF20B5FDC2B4758920758DFD751C
:100140009850D28E3098FDE599C298C28EF54F1224
:100150000519054BD2B430B5FDDFD9D294C29580D4
:1001600015B40209B29512017880F98009B294B2EF
:100170009512017880F780FE7BFF7AFF000000DA9D
:10018000FB000000DBF4227AFF000000DAFB22C053
:100190000179FF74001202505002D9F7D00122C039
:1001A00000C001751C8012027E40292344A0C2E0D9
:1001B0001202AD401CE54C1202AD4015E54B120297
:1001C000AD400E900000E01202AD4005A3D51CF634
:1001D000C312029DD001D000227400319F5003D57C
:1001E000F0F72275F096740031F05003D5F0F72245
:1001F000C000C001751C80517E40362344A0F8C267
:10020000E051AD402AE54C51AD4024E54B51AD40A5
:100210001E517E401AE8D2E051AD401351E1F0A9E1
:100220001CB90104710A800651FBA3D51CEEC35111
:050230009DD001D0008B
:100235002212027E40142344A0D2E01202AD4007F0
:100245001202E112030AC312029D22C0F0F5F01258
:10025500027E40222344A0C2E01202AD4015E54CC7
:100265001202AD400EE54B1202AD4007E5F0120259
:1002750036800312029DD0F022D293D292003092A2
:10028500FD000030931030920D00C2930000000075
:1002950000C292C38001D322C2930000D292309251
:1002A500FD00000000D29322C0F075F00833929350
:1002B50000000000D292000000003092FD0000C254
:1002C50092D5F0E9D2930000D2923092FDA293C26A
:1002D500920000000000000000D0F022D293C0F090
:1002E50075F008000000D2923092FDA29333C292BD
:1002F500D5F0F0D0F022C29300D2923092FD0000EA
:100305000000C29222D29300D2923092FD000000EA
:1003150000C29222C0F075F0321203545003D5F09A
:10032500F8D0F02212027E402574002344A0C2E0DA
:070335001202AD4016E54C79
:10033C001202AD400FE54B1202AD4008E54F120220
:10034C00AD4001C312029D2212027E40257400238F
:10035C0044A0C2E01202AD4016E54C1202AD400FB3
:10036C00E54B1202AD4008E54F1202AD4001C3123D
:10037C00029D22C0F075F00F1203295003D5F0F83E
:10038C00D0F022C00179FF74001204505002D9F74A
:10039C00D00122C000C001751C8012047E402923AC
:1003AC0044A0C2E01204AD401CE54C1204AD401553
:1003BC00E54B1204AD400E900000E01204AD400578
:1003CC00A3D51CF6C312049DD001D0002274007179
:1003DC009F5003D5F0F72275F096740071F050031E
:1003EC00D5F0F722C000C001751C80917E403623E9
:1003FC0044A0F8C2E091AD402AE54C91AD4024E513
:10040C004B91AD401E917E401AE8D2E091AD401365
:10041C0091E1F0A91CB90104B10A800691FBA3D5A6
:10042C001CEEC3919DD001D0002212047E401423F7
:10043C0044A0D2E01204AD40071204E112050AC335
:10044C0012049D22C0F0F5F012047E40222344A039
:10045C00C2E01204AD4015E54C1204AD400EE54B64
:0A046C001204AD4007E5F01204365B
:10047600800312049DD0F022D291D290003090FDDC
:10048600000030911030900D00C291000000000075
:10049600C290C38001D322C2910000D2903090FD59
:1004A60000000000D29122C0F075F008339291004E
:1004B600000000D290000000003090FD0000C290C5
:1004C600D5F0E9D2910000D2903090FDA291C29071
:1004D6000000000000000000D0F022D291C0F075AC
:1004E600F008000000D2903090FDA29133C290D562
:1004F600F0F0D0F022C29100D2903090FD000000C2
:1005060000C29022D29100D2903090FD00000000EF
:10051600C29022C0F075F0321205545003D5F0F89F
:10052600D0F02212047E402574002344A0C2E012BB
:1005360004AD4016E54C1204AD400FE54B1204AD78
:100546004008E54F1204AD4001C312049D22120477
:100556007E402574002344A0C2E01204AD4016E597
:100566004C1204AD400FE54B1204AD4008E54F12A6
:0805760004AD4001C312049D15
:10057E0022C0F075F00F1205295003D5F0F8D0F017
:10058E0022C082C083854B82854C83A385834C8594
:07059E00824BD083D08222C2
:00000001FF
