:03000000020100FA
:0100030032CA
:01000B0032C2
:0100130032BA
:01001B0032B2
:01002B0032A2
:10010000D294D295D2B5D2B412027620B5FD30B5D4
:10011000FDD296D294D295120276C294C295120262
:10012000762096EFC294C295758920758DFD7598DD
:1001300050D28E3098FDE599C298C28EB4010280EB
:10014000024115C294D295751B00751A007FA32039
:10015000B5FDC2B4781F7E5A758920758DFD7598DE
:1001600050D28E3098FDE599C298C28EF608DEE82E
:100170007E5A781FE6F51E12041B1206A508DEF44F
:10018000D2B430B5FDDFC8751BFF751AF0751E10AF
:1001900012041B751BFF751AF1751E1112041B75D5
:1001A0001BFF751AF2751E1212041B751BFF751AC0
:1001B000F3751E1312041B751BFF751AF8751E00CC
:1001C00012041B751B39751A0512028D751BFF75FC
:1001D0001AF4F51E12041B751B39751A0612028DCE
:1001E000751BFF751AF5F51E12041B751B39751A60
:1001F0000712028D751BFF751AF6F51E12041B758A
:100200001B39751A0812028D751BFF751AF7F51E3A
:1002100012041B800BB40206D294C29580028000A7
:10022000D294C295120276C294D29512027630967A
:10023000EF2113D294C295120276C294C295120293
:1002400076D294C295120276C294C295120276C2F8
:1002500094D295120276C294C295120276C294D2BA
:1002600095120276C294C295D2B5D2B412027630FB
:0402700096C12113FF
:1002740080FE7BFF7AFF000000DAFB000000DBF465
:10028400227AFF000000DAFB22C00179FF74001219
:1002940003525006D9F7D0018095D00122C000C086
:1002A4000175188012038040292344A0C2E0120380
:1002B400AF401CE51B1203AF4015E51A1203AF4013
:1002C4000E900000E01203AF4005A3D518F6C31248
:1002D400039FD001D00022740051A15003D5F0F740
:1002E4002275F0FF740051F25003D5F0F722C000DC
:1002F400C001751880718040362344A0F8C2E071B3
:10030400AF402AE51B71AF4024E51A71AF401E715E
:1003140080401AE8D2E071AF401371E3F0A918B934
:100324000104910C800671FDA3D518EEC3719FD012
:1003340001D0002212038040142344A0D2E012030F
:10034400AF40071203E312040CC312039F22C0F050
:10035400F5F012038040222344A0C2E01203AF4010
:1003640015E51B1203AF400EE51A1203AF4007E573
:10037400F0120338800312039FD0F022D293D2925A
:10038400003092FD000030931030920D00C29300B3
:0303940000000066
:1003970000C292C38001D322C2930000D29230924E
:1003A700FD00000000D29322C0F075F0083392934D
:1003B70000000000D292000000003092FD0000C251
:1003C70092D5F0E9D2930000D2923092FDA293C267
:1003D700920000000000000000D0F022D293C0F08D
:1003E70075F008000000D2923092FDA29333C292BA
:1003F700D5F0F0D0F022C29300D2923092FD0000E7
:100407000000C29222D29300D2923092FD000000E7
:1004170000C29222C0F075F0FF12045A5007D5F0BF
:10042700F8D0F04133D0F022120380402574002326
:1004370044A0C2E01203AF4016E51B1203AF400F02
:10044700E51A1203AF4008E51E1203AF4001C312BD
:10045700039F22120380402574002344A0C2E012A8
:1004670003AF4016E51B1203AF400FE51A1203AFA7
:100477004008E51E1203AF4001C312039F22C0F0DC
:1004870075F0FF12042F5007D5F0F8D0F04133D0A4
:0F049700F022C00179FF740012055E5006D9F7FC
:1004A600D0014133D00122C000C001751880120569
:1004B6008C40292344A0C2E01205BB401CE51B1258
:1004C60005BB4015E51A1205BB400E900000E01270
:1004D60005BB4005A3D518F6C31205ABD001D00065
:1004E60022740091AD5003D5F0F72275F096740092
:1004F60091FE5003D5F0F722C000C001751880B1F7
:100506008C40362344A0F8C2E0B1BB402AE51BB1BB
:10051600BB4024E51AB1BB401EB18C401AE8D2E0BC
:10052600B1BB4013B1EFF0A918B90104D118800688
:10053600D109A3D518EEC3B1ABD001D00022120564
:100546008C40142344A0D2E01205BB40071205EFED
:10055600120618C31205AB22C0F0F5F012058C4046
:10056600222344A0C2E01205BB4015E51B1205BBC1
:10057600400EE51A1205BB4007E5F012054480035C
:100586001205ABD0F022D291D290003090FD00003F
:1005960030911030900D00C2910000000000C29012
:1005A600C38001D322C2910000D2903090FD00009A
:1005B6000000D29122C0F075F0083392910000003D
:1005C60000D290000000003090FD0000C290D5F0EF
:1005D600E9D2910000D2903090FDA291C290000025
:1005E600000000000000D0F022D291C0F075F008A3
:1005F600000000D2903090FDA29133C290D5F0F069
:10060600D0F022C29100D2903090FD00000000C2CE
:100616009022D29100D2903090FD00000000C2904E
:1006260022C0F075F0FF1206665007D5F0F8D0F03C
:100636004133D0F02212058C402574002344A0C219
:10064600E01205BB4016E51B1205BB400FE51A126A
:1006560005BB4008E51E1205BB4001C31205AB22CF
:1006660012058C402574002344A0C2E01205BB404D
:1006760016E51B1205BB400FE51A1205BB4008E53F
:100686001E1205BB4001C31205AB22C0F075F0FF78
:1006960012063B5007D5F0F8D0F04133D0F022C017
:1006A60082C083851A82851B83A385831B85821A54
:0506B600D083D0822278
:00000001FF
