:1001000000000000000000000000000000000000EF
:1001100000000000000000000000000000000000DF
:1001200000000000000000000000000000000000CF
:1001300000000000000000000000000000000000BF
:100141007F03030F0B077F6303072B0703023E00A7
:10015100000000272F1B03033E0003060000000FD1
:10016100031313030E0000000003060000003F000C
:10017100000000030203000000003F00030600002E
:010181000F6E
:0F018200000000000000000000000000004040EE
:100195001B0300000000272F1B032F03030F03037E
:0301A5000F1B032A
:0601AE0000001F78E000D4
:0601B8000000E07F7CE086
:0601C20000C060FF78E0C0
:0601CC0000B0B0FF386036
:0601D600001E73C7330E8A
:0601E000006030BCB770A6
:0601EA0000F81C033EF8C2
:0601F400001F3CC03C0F9F
:0601FE000003FFB0B06039
:060208000000060F0600D5
:100212000000000000000CF8003C0C4C4C0C388034
:10022200BC6C0C0CF8001E037919989818700038F1
:100232005830181878D8007A1A181E330101FC00B9
:100242001058485C2C0C1C2C180C0C0CF800FE03EB
:10025200031E00BC8C0CBC0C0C3CAC1CFC8C0C3D7E
:100262000D0C1C2C180C0000404E5E3606FE0606D5
:100272000E160C0606067E140C0C0020B090B85820
:1002820018781A181E2B1B02001E33010100001ED3
:100292003301F900001E2B1B0200F8001E3301017E
:1002A20078D8180000809CBC6C0CBC0C0C3D0D0C6A
:1002B2003C6C0C00000000060E5E1616061E160EA2
:1002C200FEC606067C000078D818001E3301010223
:1002D20000F80018387A5858181E33010102F80045
:1002E200002C2E1B031E00001058485C2C0C1C2CEA
:1002F200180C0CFC0C0C3D0D0C0CF8003C0C4C4C7E
:100302000C380000FBFB00000000000000000000B1
:1003120000000000385830181878D818007A1A18D7
:100322001E330101027A1A18781898981870000082
:100332000000381838183018183A1A1838183818AF
:10034200301818B898183878180F0000000000000C
:10035200000000000000000000000000000000009B
:10036200000000000000BC8C0CBC0C0C3CAC1CFC63
:100372008C0C3D0D0C1C2C180C0C0CF8003C0C4C7D
:100382004C0C3800000000BC8C0CFC0C0C1CAC1C8F
:100392000C0F1B43030F00000000000000000000D0
:1003A2000000000000000078D818001E330101028E
:1003B200000C1C3C2C2C0C0CF800FE03031E00004D
:1003C200FC00BC0C0C0C1C3D2C2C0C0CF80070B767
:1003D2003800001058485C2C0C1C2C180C0CFC0C1F
:1003E2000C3D0D0C0CF8003C0C4C4C0C38000C0C69
:1003F200000C0C000C0C0000BC0C0C1C2C180C0C7F
:100402000CF8003D0D0C1C4CDC0F1B03030B07000A
:10041200000000BC8C0CBC0C0C3CAC1CFC8C0C3DDD
:100422000D0C1C2C180C0C0CF8003C0C4C4C0C3811
:1004320000000000BCB40C1C0D0CFC0C0C080B07DB
:10044200010907000000003C0D0C0C7C2818180064
:100452001E330101001E2B1B02001EB30101001EF0
:10046200330101003818381830181818F0007030AD
:10047200B0303E1B03231E003898181E33010100C2
:1004820038581F0000FC00786C0C9E33810100F884
:10049200001E330101000000000000000000000007
:1004A2001058485C2C0C1C2C180C0CFC0C0C3D0D30
:1004B2000C0CF8003C0C4C4C0C3800000000FC000A
:1004C200BC0C0C0C1C3D2C2C0C0CF80070B738002A
:1004D2000000001C4CDC0C180C0C3C6C0C000000E6
:1004E200000000000000000000004E5E3606FE061E
:1004F200060E160C0606067E140C0C00000020B038
:1005020090B85818781A181E2B1B02041E330101CA
:1005120002000000082C24AE1606FE06061E160E69
:10052200FEC6060000007E000E060E060C06061E23
:06053200062626061C004F
:1006040000808080809CECEC4C0C0C0C0CF8001EE0
:1006140033010101380C8C0C8C0C380000FC0000F8
:080624001048CCDC7C0CB80C82
:100636008C0C380D0C0C0C0CF8001E33010101005B
:100646000000388C0C0C78CC0C180000FC001E3313
:0806560001010178CC0C180031
:10066800000000FC0C0C3C2C1CFC8C0C1CAC1C0C66
:100678000CF800809CBC6C0C0CF8001E33010102C5
:08068800781898981870000022
:10069A001E33010102F800001E2B1B0204F8001E83
:1006AA003301010278D81800009CBC6C0CBC0C0CFD
:0806BA003D0D0C3C6C0C00002E
:1006CC0000003C66030300390C0D0C0C0CF800FC0C
:0806DC00020303130E000000ED
:1006EA005B3B1303170E000070D8D858381830181F
:1006FA0018701B18183C6603030280808098BCACF3
:10070A00ACCCCC0C388C0C0C390C0D0C78CC0C18ED
:10071C0000FE03030E1B1B0B87FF03031BB60F030B
:10072C000303FE00FE030306060E1A1B0B030EDB6F
:10073C001B0B87FF03037C160E0000FF00206CCE02
:10074E0000000000000000000000C0E0606060607B
:10075E00606060C000F0980C0C08C0606060C06003
:10076E0060606060C00070980C0C4C380000000097
:10077E00F0980C0C0800E000000000008040606063
:1007940060F0980C0C0800E000E0B0E04060F0A8C5
:1007A400EC0C0C08C060C060F00C0C780000000079
:1007B400C0606060C0E06060606060C0606060CC29
:1007C400606C60C06060C0000000000000000000B9
:1007DA00000000000000000000003031191B0E0666
:1007EA000000001F0000010000000D000C000D00B9
:1007FA000C0000001F0000000006000000000000BE
:10080A000001000000001F00000000000305330083
:10082000000001000000001F0000010000000001A6
:100830000000000001083108000000000000000076
:10084000010C00003031191B0E0600010C000001E4
:10085000000000030600000000000000000000008F
:1008660000001C044CC40C041C24180404FC000ED8
:10087600110101001C241C8040A05C2404040C15FA
:10088600050E110101002C2A1901011E00001C246D
:100896001804040C151414043C4404003C440400DD
:1008AC0000003B1A18F818183A1A183818381E3362
:1008BC000303130E0000000000000C0C00000000ED
:0808CC001E70000000001E7008
:1008D500000000F8001E2B1B02001E03010140DE74
:1008E50043010102F800B818183818381E330303FD
:1008F500130E00000000000E1B3B070000000F3820
:08090500000000000F380000A3
:10090E000080809FC00F2323071337030603032F96
:10091E00030307133703060303037E00BC0C0C0E00
:10092E000D0501110F0000000F1133110E000030E4
:08093E001F38000000000F3813
:10094700003F000F0B077F6303033C030D193804B7
:100957001612170B03033E000F031313030E0000B9
:10096700BC8C0CFC0C0C1CAC1C0C0F1941090700AF
:1009770000070E300F0000000F38000000000F388E
:10098800003C3C3C7EFFFF0018002418423C817E5E
:1009C4000000000000000000000C120C020202846F
:1009D4004C2A12027C00FC020E120C02023C140C83
:1009E4000000001C220100007E00000C1505048498
:1009F40044AC52027C001E2101411E000000000094
:100A05000002060A0A0A021E1202007E005C5A0251
:100A15007E01010907000000007E00082424241C33
:100A2500040C54440C1504047C001C020101000054
:100A350040760A364240001C4201003030500F001B
:100A4500300808F800380838081E21011F0000008A
:100A5500003C2A190101FC001C22010100788808CC
:100A6500003848380000000000000000180B0A0894
:100A7500F8003808180818082939A1312926000076
:100A850000182A0808F0503000000018A8883848D7
:100A95000F0F0F0F0F0F0F0FF0F0F0F0F0F0F0F059
:100AA50000000000FFFFFFFFFFFFFFFF0000000049
:100AB500666666666666666638383838FE7C38105F
:100AC50080C06030180C06030000003333000000BE
:100AD500F09090909F8181FFFF81819F909090F091
:100AE5000F090909F98181FFFF8181F90909090FB9
:100AF500007E7E7E7E7E7E00FFFFFFFFFFFFFFFF05
:080B0500492A1C7F1C2A49004B
:100BB800000F0F0F0F0F0F0F0F0F0F000000E0E3D4
:100BC800E3E3E0000000000000FEFEFEFEFE3E3E05
:100BD8003F3FFFFFFFFFFF000000000000C0C3C34E
:100BE800C3C0C00007070707070707070707070766
:100BF8000000000000000000000000000000FFFFEF
:100C0800FFFFFFFCFCFCFCFCFCFFFFFFFFFF0000FC
:100C18000000FFFFFFFFFFFCFCFCFCFCFCFFFFFFEC
:100C2800FFFFFF00000000000000000000000000BF
:100C380000C0C101C30302C2C60607C705C5C40474
:100C4800CC0C0DCD0FCFCE0E0ACACB0BC90908C8E4
:100C5800D81819D91BDBDA1A1EDEDF1FDD1D1CDCD4
:100C680014D4D515D71716D6D21213D311D1D01044
:100C7800F03031F133F3F23236F6F737F53534F434
:100C88003CFCFD3DFF3F3EFEFA3A3BFB39F9F838A4
:100C980028E8E929EB2B2AEAEE2E2FEF2DEDEC2C94
:100CA800E42425E527E7E62622E2E323E12120E004
:100CB800A06061A163A3A26266A6A767A56564A4F4
:100CC8006CACAD6DAF6F6EAEAA6A6BAB69A9A86864
:100CD80078B8B979BB7B7ABABE7E7FBF7DBDBC7C54
:100CE800B47475B577B7B67672B2B373B17170B0C4
:100CF80050909151935352929656579755959454B4
:100D08009C5C5D9D5F9F9E5E5A9A9B5B9959589823
:100D1800884849894B8B8A4A4E8E8F4F8D4D4C8C13
:100D28004484854587474686824243834181804083
:100D3800070B060303070B070000000303070B0B51
:100D48000B03070B070000001F3B0300000D0D07F6
:100D58000002012060676F3B330303FE00070C00AD
:100D6800000000070B031313030E0000000F236E8F
:100D780003030E0303070B06030303FE000000072B
:100D88002B2303070B06030303FE00070B0F0100C9
:100D9800000F236E03030E03031F3B03000E1B0704
:100DA800000000000080C0606040000000400000BB
:100DB800000080C060604080000000000080C060CB
:100DC8006060C000000000000000000000C0E0609B
:100DD80020000000000000000000000000000000EB
:100DE80000000000000000000000000000000000FB
:100DF8000000000000000000000000000000F800F3
:100E080000000000000000000000000000000000DA
:100E1800000000000000377901070D0D05FF610192
:100E28000F5B0F01017F00103033371D1901017F5F
:100E3800000306000000000305010909010700007E
:100E480003060000007F000000031511010D0F0FBD
:100E58000D0103050300000003050101070D0D2521
:100E6800030301030600000201000033371D1901C6
:100E780003150101030501010F1D01000000000019
:100E8800000000000000808080808080808080805A
:100E980080808080800000000080808080808000CA
:100EA80000E07030100000808080808080000000AA
:100EB800E07030100080000000808080808000801A
:100EC8008080C0E0B030200080A0A080808080803A
:100ED800808080E070303030E0000080808080804A
:100EE8008080808080A0A08080808000000000003A
:100EF80000C1814001C0804101C0804100C18140E2
:100F080001C0804100C1814000C1814001C08041D1
:100F180001C0804100C1814000C1814001C08041C1
:0D0F280000C1814001C0804101C080410036
:100F3500C1814001C0804100C1814000C1814001A3
:100F4500C0804100C1814001C0804101C080410095
:100F5500C1814000C1814001C0804101C080410084
:100F6500C1814001C0804100C1814000C181400173
:100F7500C0804101C0804100C1814000C181400164
:100F8500C0804100C1814001C0804101C080410055
:100F9500C1814000C1814001C0804101C080410044
:100FA500C1814001C0804100C1814000C181400133
:100FB500C0804100C1814001C0804101C080410025
:100FC500C1814001C0804100C1814000C181400113
:100FD500C0804101C0804100C1814000C181400104
:100FE500C0804100C1814001C0804101C0804100F5
:100FF500C1814000C0C101C30302C2C60607C705BF
:10100500C5C404CC0C0DCD0FCFCE0E0ACACB0BC96F
:101015000908C8D81819D91BDBDA1A1EDEDF1FDD4F
:101025001D1CDC14D4D515D71716D6D21213D3111F
:10103500D1D010F03031F133F3F23236F6F737F51F
:101045003534F43CFCFD3DFF3F3EFEFA3A3BFB39AF
:10105500F9F83828E8E929EB2B2AEAEE2E2FEF2DAF
:10106500EDEC2CE42425E527E7E62622E2E323E15F
:101075002120E0A06061A163A3A26266A6A767A57F
:101085006564A46CACAD6DAF6F6EAEAA6A6BAB69EF
:10109500A9A86878B8B979BB7B7ABABE7E7FBF7DCF
:1010A500BDBC7CB47475B577B7B67672B2B373B19F
:1010B5007170B050909151935352929656579755DF
:1010C5009594549C5C5D9D5F9F9E5E5A9A9B5B992F
:1010D500595898884849894B8B8A4A4E8E8F4F8D2F
:1010E5004D4C8C44848545874746868242438341DF
:0310F500818040B7
:101194001E3EFEFEFEFEFEFEFEFEFCF8E0820E1E7D
:1011A4007EFEFEFEFEFEFEFEFEFEFEFEFEFEFEFEDB
:1011B400FEFE7E1E0E02000000000000000002067B
:1011C4000E1E3E7EFEFEFEFEFEFEFEFCF8F0E2C6B5
:1011D4008E1E7EFEFEFEFEFEFEFEFEFCF0E0C20E55
:1011E400FEFCF0C1871F3FFFFFFFFFFFFFFFFFFC77
:1011F400F8E1C30F3F7FFFFFFFFFFFFFFF7F1F0FDC
:101204000300000000000000000000031F7CE4E471
:101214007C1F0300000103071F3F7FFFFFFFFFFF49
:10122400FFFFFCF8F1C38F1F3FFFFFFFFFFFFFFF2E
:10123400FFFFFFFFFFFEFCF0C30F3FFFFFFFFFFFB9
:10124400FFFFFFFEF8E081071F3F0F0301000000CE
:101254000000000000000000000000000000010188
:1012640000000000000000000000000001070F1F44
:101274007FFFFFFFFFFFFFFFFCF8E1871F3FFFFF3A
:10128400071F7FFFFFFFFFFFFFFFFCE0830F3FFF10
:10129400FFFFFFFF7F1F07030000000000000000A6
:1012A400000000000000000000000000000000003A
:1012B40000000000000000000000F0F080E0E0808A
:1012C400F0F1030F3F7FFFFFFFFFFFFFFFFCF8C1BB
:1012D400FFFCF0C30F3FFFFFFFFFFFFFFFFEF861BE
:1012E400070F0300000000000000000000000000E1
:1012F40000000000000000000000000000000000EA
:10130400000000000000000000001F1F070101078B
:101314001F1F0000000001073FFFFFFFFFFFFFFF4B
:10132400FFFFFFFFFEF0810F7FFFFF3F0F0701006C
:1013340000000000000000000000000000000000A9
:101344000000000000000000000000000000000099
:101354000000000000000000000000000000000089
:1013640000000000000000000000030FFFFFFFFF6B
:10137400FFFFFFFFFFFF7F1C0001000000000000D3
:101384000000000000000000000000000000000059
:101394000000000000000000000000000000000049
:1013A4000000000000000000000000000000000039
:1013B40000000000000000000000F0F000073FFF04
:1013C400FF7F3F0F03010000000000000000000049
:1013D4000000000000000000000000000000000009
:1013E40000000000000000000000000000000000F9
:1013F40000000000000000000000000000000000E9
:10140400000000000000101111111F1F0000000354
:10141400F8F8080E0E0E0E0E0E0E0E0E8E8E0E8E9A
:10142400CE4E4E8E8E8E0E0E0E0E0E0E0E0E0EF82E
:10143400F8080E0E0E8ECE4E4ECE8E0ECECE0E8EE4
:10144400CE8E0ECECE0E0E0E0E0ECECE0E0E0EF88E
:10157C00040E1901002C2E1B031E00000000B80CD9
:10158C000C1C2C180C0C0CF8003D0D0C390D0C38E7
:08159C006C0C000000000000CF
:1015A500000000000000001C4CDC0C180C0C1C2C6E
:1015B500180C0C0CF8001E33010100182C1C00003F
:0815C5008040AC5C34041D0DF4
:1015CE00011C2C180C0C0C1C3D2C2C0C0CF8001EA9
:1015DE00B3010102000000FC001C0C1C0C180C0CCA
:0815EE003C0C4C4C0C380000D1
:1015F70000000000809CBC6C0C0CF8001E3301013D
:10160700003C0C4C4C0C3800000000082C2C1C8CA7
:081617000C1D0D0C0E1B01015E
:1016200000000000000000000000000000000000BA
:10163000005E1B03033E00001C020101391838182C
:101640003018181E1B0B03231F00000000000000B1
:08165000000000000000000092
:101659000000000000000000E0606000F89C0C043D
:101669000800E06060686060C00000000000E060A1
:101679006000E060C06060C06060E0606060606001
:10168900C0C060606060C000C060E0000000000091
:10169900E0606060E06060E0E0E060F89C0C0C8C69
:1016A900780000000000E068606060C000F89C0CF1
:1016B9000408000000000000E000E060C06060C0B5
:1016C9006060E06060606060C000000000000000D1
:1016D90000000000000000000307000000010000F6
:1016E90000000001000000000100000000000307E5
:1016F90000000100010000010000000504000000D5
:101709002C2D171600001F00010300000000000027
:10171900000504000D1E000316030000010002006D
:1017290000000000000000010000001F000005008B
:1017390000000000000000001F000100010000017E
:10174900000000010002020001000000000000008A
:1017590000000000C0C080C0C080C0C0C0D0D0C0E0
:10176900C0C080C0C080C0C0C0C0C0C0C0C0CC7034
:101779000000C0C0C0C0C0C0C0C08000F038180898
:1017890010000004042404048C780000C000F03820
:1017990018000000C0C080C0C080C0C0F038180860
:1017A9001000E0F0D8181020C0D0D0C0C0C080C050
:1017B900C0F038181818F000000000E000E060C020
:1017C9006060C06060E06060606060C00000000050
:1017D90000000000030003000003000001030000F3
:1017E90000000102010000000102000003000300E3
:1017F90000010300000100000000001F00010001BA
:1018090000000100000001000202000100000000C8
:1018190000000000030003000003000001020000B3
:101829000300030000030000010A0800010202008E
:10183900000000010903020200003F00010300004B
:101849000000000006060607060300003F00010B22
:10185900000000000000000000000000000000C0BF
:10186900C0C0C0C0E0F0D8181020C0C080C0C0807F
:10187900C0C0F0E86C0C0C8C7800000000C0C0C03F
:10188900C0C0C0C0C0C0C0C0F038181818F00000EF
:10189900000000808080C0C0C0C0F0381808100067
:1018A90000C000C0C0C0D0C0C0800000000000005F
:1018B900C000C0C080C0C080C0C0C0C0C0C0C0C05F
:1018C900800000000000000000000000000000008F
:1018D900000000000000000000000000001058593E
:1018E9005B2E2C0001020100000003081B0000030D
:1018F90000000000000000000000000000010A08CC
:10190900001B3C00072D0700010300040100000033
:1019190000000000010B03020200010300000000A7
:10192900003F000102000000000300000000000069
:101939003F0003000300000300000102000404004B
:10194900030000000000000000000000000000008B
:10195900F8080E0E0E0E0E0E0E0E0E0E0ECECECE7A
:10196900CECECECECECE0E0E0E0E0E0E0E0E0E0E0E
:101979000EF8F8080E0E0E0E0E0E0E0ECECECECEB0
:10198900CECECECECE0E0E0E0E0E0E0E0E0EFEFECE
:10199900FF000000000000000000000000F7F7F75A
:1019A900F7F7F7F7F7F70000000000000000000064
:1019B90000FFFF0000000000000000000707070704
:0D19C90007070707070000000000000000EE
:1019D60000FFFFFF00000000000000000000000004
:1019E60001010101010101010100000000000000E8
:1019F60000000000FFFF00000000000000000000E3
:101A060000000000000000000000000000000000D0
:101A160000FFFF00FFFFFFFFFFFFFF7F00808080CA
:101A260080808080808080808080808080808080B0
:101A3600808080808080808080808080FF7F0080A2
:101A46008080808080808080808080808080808090
:101A5600808080808080808080FF7FF8F8080E0E6E
:101A66000E0E0E0E0E0E0ECECECECECECECECECED0
:101A76000E0E0E0E0E0E0E0E0E0EF8F8080E0E0EB2
:101A86000E0E0E0E0E0E0ECECECECECECECECECEB0
:101A96000E0E0E0E0E0E0E0E0E0EF8FFFF000000BE
:101AA60000000000000000F7F7F7F7F7F7F7F7F781
:101AB60000000000000000000000FFFF0000000022
:101AC60000000000000000F7F7F7F7F7F7F7F7F761
:101AD60000000000000000000000FFFFFF00000003
:101AE600000000000000007D7D7D7D7D7D7D7D7D8B
:101AF60000000000000000000000FFFF00000000E2
:101B0600000000000000007D7D7D7D7D7D7D7D7D6A
:101B160000000000000000000000FFFFFF80808042
:101B2600808080808080809F9F9F9F9F9F9F9F9F98
:101B360080808080808080808080FF7F00808080A1
:101B4600808080808080808080808080808080808F
:101B560080808080808080808080FF000000000080
:101B660080BF8000C0FE1E66E0001E3301010270C9
:101B7600B7380000000C1C3D2C2C0C0CF8001E3352
:101B8600010102002C2E1B031E0000000E060E068D
:101B96000C0606067C00082C242E16061E06262693
:101BA600061C00000018387A58581818F0001E3322
:101BB600010102002C2E1B031E0000000000000085
:101BC60000000080BF8000C0FE1E66E0001E3301DC
:101BD600010270B7380000000C1C3D2C2C0C3C6C2C
:101BE6000C003D0D0C3C6C0C0000000000000E06C5
:101BF6000E060C0606067C00082C242E16061E066B
:101C06002626061C000000000C1C3D2C2C0C3C6CEF
:0B1C16000C003D0D0C3C6C0C000000AD
:101C5800000000000000000000000000000000007C
:101C6800000000000000000000000000000000006C
:101C7800000000000000000000000000000000005C
:101C8800000000000000000000000000000000004C
:101C99007F03030F0B077F6303072B0703023E0034
:101CA900000000272F1B03033E0003060000000F5E
:101CB900031313030E0000000003060000003F0099
:101CC900000000030203000000003F0003060000BB
:011CD9000FFB
:0F1CDA000000000000000000000000000040407B
:101CED001B0300000000272F1B032F03030F03030B
:031CFD000F1B03B7
:061D060000FFFF60300049
:061D100071F98DC74300CC
:061D1A006EFF91C34200C0
:061D240004FFFF44340C33
:061D2E008E9FD1F33A0084
:061D38004EDF91FF7E006A
:061D4200C0F0BF8F80001D
:061D4C006EFF91FF6E0026
:061D56007EFF89FB720014
:061D60007EFF81FF7E0002
:101D6A00000000000000F8080E0E0E0E0E0E0E0EF9
:101D7A000E0E0E0E0E0E0E0E0E0E0E0E0E0E0E0E79
:101D8A000E0E0E0E0E0E0EF8F8080E0E0E0E0E0E9B
:101D9A000E0E0E0E0E0E0E0E0E0E0E0E0E8E8E8ED9
:101DAA000E0E0E0EFEFEFF000000000000000000F6
:101DBA001E3F2121FFFF00FFFF21213F1E000000DF
:101DCA0000000000000000FFFF00000018387858EB
:101DDA0058181E330101021E2B1B020401414961DE
:101DEA00532E0000FFFFFF000000A0B09090F0E02B
:101DFA0000F0F00000F0F000E0F01010F0E0000059
:101E0A0000F0F000000000FFFF00000000000100E9
:101E1A0000000000000000000000000000000000B8
:101E2A0000000000FFFF7F0080808183828283811F
:101E3A008081838282838380818382828381808876
:101E4A00888F8F88888080FF7F0080808080808054
:101E5A008080808080808080808080808080808078
:101E6A0080808080FF7F00FFFFFFFFFFFFFFF8F801
:101E7A00088ECEEE2E2E8E8E8E8E0E0E8E8E0E0E1E
:101E8A008E8E8E8E0E0E8E8E8E8E8E0E0EF8F8081A
:101E9A000E8ECEEE2E2E8E8E8E8E0E0E8E8E0E0EF8
:101EAA008E8E8E8E0E0E8E8E8E8E8E0E0EF8FFFFFC
:101EBA001E0F010F1E100F1F14170B007F7F000D3E
:101ECA001D14141F0F007F7F10101F0F00FFFF004B
:101EDA001E0F010F1E100F1F14170B007F7F000D1E
:101EEA001D14141F0F007F7F10101F0F00FFFFFF2C
:101EFA00F8F80000F8F800B0B86868D8D000F8F828
:101F0A004878B000F8F800808080F8F800FFFF00F9
:101F1A0000A0B09090F0E000F0F00000F0F000E0D7
:101F2A00F01010F0E0000000F0F0000000FFFFFFEA
:101F3A008081818187878080818181818080808181
:101F4A0081818080878780848484878780FF7F005F
:101F5A00808183828283818081838282838380815C
:0E1F6A0083828283818088888F8F888880FFA1
:10215C0000000000000000000000001A3B29293F8D
:10216C001E001233213F1E001F3F20203F3F001F47
:08217C003F292F1600FFFF00B0
:10218E001F3F292F16001E3F2121FFFF00000000D8
:10219E001E3F21213F1E00FFFF0C30FFFF000000FD
:0821AE00000000000000000029
:1021C0000016372D2D3B1A00FFFF0070F88888FF9E
:1021D000FF00000000FFFF21213F1E0020203F3FA5
:0821E000001F3F292F16001219
:1021F20033213F1E00000021FF7E2000203F3F00D0
:102202001A3B29293F1E0016372D2D3B1A001F3F6E
:0822120020203F3F00BFBF0088
:1022240000122529291200FF001F2A29291600BFA0
:08223400006196989090FF00F4
:10224200001A3B29293F1E0016372D2D3B1A001F6D
:102252003F292F16001A3B29293F1E00FFFF007855
:10226200FC8484FFFF00000000000000000000006A
:102274000000000000000000000000000303000351
:10228400030003030000000021FF7E20BFBF001FE6
:102294003F292F1600383F071E381E073F3800001D
:1022A60000000000000000000000A0A000E0E02008
:1022B600E0C00000E0E000E0E0A0E0400040602078
:1022C600E0C00000000000E0E000E0E060E0C000E8
:1022D600C0E020E0C000C0F038E8C80000000020E0
:1022EC00E0C00080A0A0E0C000F0F868E8C00000EA
:1022FC00E0E000C0E020E0C00020E0E000000000D2
:10230C0020E0C000E0E000E0E000C0E020E0C00021
:10231C00E0E020E0C0000000000000000000000031
:10233200000000000000000000000F0F000F0F0A55
:102342000301000203010001030202000001030273
:102352000301000000000203010003030003030065
:102362000103020301000303000303000000000253
:10237800070700010302030100030302030100022F
:10238800030100010302030100090F070000000018
:10239800020707000103030303020103020301000C
:1023A8000F0F0A03010000000000000000000000F9
:1023BE000000000000000000000003030003030003
:1023CE00030300000000FFFF001F3F292F1600BF70
:1023DE00BF00FFFF21213F1E001A3B29293F1E018E
:1023EE0073FE8C88FFFF000000000000000000005C
:10240400000000000000001A2929291E00122121C1
:10241400211E00BF00FF001E2121211E007088889C
:0824240088FF00000000000029
:10242D0000300806093000122121211E001F202036
:10243D00203F001A2929291E003E29252519002093
:10244D00103F001A2929291E001F20203F20203F60
:08245D000091919191FF000034
:1024660000001F2020203F001E2121211E00BF004A
:1024760021FF201F2A2929160021FF20122529299C
:1024860012000000001A2929291E0020103F00BF53
:082496000080909090FF00000F
:10249F00000000000000001F2020203F001E21210F
:1024AF00211E00BF0021FF201F2A292916001F20EF
:1024BF00203F20103F0020103F001E2121211E0031
:1024CF00A07F20001F2020203F00FF000000000001
:1024E000003C3C3C7EFFFF0018002418423C817EEB
:10251C0000000000000000000000FFFF00FFFF00B3
:10252C001F3F292F16001233213F1E000000001AF6
:10253C003B29293F1E001A3B29293F1E0020203F22
:10254C003F00909090FFFF00000000000000000092
:10255D000000000021FF201225292912001F2A2921
:10256D002916001A2929291E00FF0021FF201F2AE4
:10257D0029291600000000FF1221211E001A292909
:10258D00291E001A2929291E00FF020C3040FF00C8
:10271000000F0F0F0F0F0F0F0F0F0F000000E0E360
:10272000E3E3E0000000000000FEFEFEFEFE3E3E91
:102730003F3FFFFFFFFFFF000000000000C0C3C3DA
:10274000C3C0C000070707070707070707070707F2
:102750000000000000000000000000000000FFFF7B
:10276000FFFFFFFCFCFCFCFCFCFFFFFFFFFF000089
:102770000000FFFFFFFFFFFCFCFCFCFCFCFFFFFF79
:10278000FFFFFF000000000000000000000000004C
:10279000F8F8080E0E0E0E0E0E0E0E0E0E0E0E0E8B
:1027A0000E0E0E0E0E0E0E0E0E0E0E0E0E0E0EF85F
:1027B000F8080E0E0E0E0E0E0E0E0E0E0E0E0E0E55
:1027C0000E0E0E0E0E0E0E0E0E0E0E0E0E0E0EF83F
:1027D000F8080E0E0E0E0E0E0E0E0E0E0E0E0E0E35
:1027E0000E0E0E0E0E0E0E0E0E0E0E0E0E0E0E0E09
:1027F0000EF8F8080E0E0E0E0E0E0E0E0E0E0E0E2B
:102800000E0E0E0E0E0E0E8E8E8E0E0E0E0EFEFE88
:10281000FFFF00008080008080008080800000003A
:10282000000080808080808080808080000000FFA9
:10283000FF0000000000000000008080800000C059
:10284000E060204000000038C0000000000000FFF1
:10285000FF00000000000000000000C0E060204019
:102860000000404000101818181830E00000000068
:1028700000FFFF0000001838785858181E33010177
:10288000021E2B1B020401414961532E0000FFFF71
:10289000FFFF00000701070101070101017F00029E
:1028A0000B09090B0501030501090901070000FFD8
:1028B000FF000000000000FF0060FF0F1130600704
:1028C0000C00000000070B0B01000000000000FFDF
:1028D000FF0000000E2B230303FE00070C00000086
:1028E00000070B0303031B1E581C1A0D00000000F9
:1028F00000FFFF00000000000100000000000000D9
:102900000000000000000000000000000000FFFFC9
:10291000FFFF8080808080808080808080808080B9
:10292000808080808080808080808080808080FF28
:102930007F00808080808282828080808080808012
:10294000808080808080808080808080808080FF08
:102950007F008080808080808080808080808080F8
:102960008080808080808080808080808080808067
:1029700080FF7F0080808080808080808080808059
:102980008080808080808080808080808080FF7FC9
:10299000F8F8080E0E0E0E0E0E0E0E0E0E8ECEEE69
:1029A000CE8E0E0E0E0E0E0E0E0E0E0E0E0E0EF81D
:1029B000F8080E0E0E0E0E0E0E0E0E0E0E0E0E0E53
:1029C0000E0E0E0E0E0E0E0E0E0E0E0E0E0E0EF83D
:1029D000F8080E0E0E0E0E0E0E0E0E0E0E0E0E0E33
:1029E0000E0E0E0E0E0E0E0E0E0E0E0E0E0E0E0E07
:1029F0000EF8F8080E0E0E0E0E0E0E0E0E0E0E0E29
:102A00000E0E0E0E0E0E0E8E8E8E0E0E0E0EFEFE86
:102A1000FFFF0000000000000000040607FFFFFFAA
:102A2000FFFF07060400000000000000000000FF98
:102A3000FF00000080C0E0F0808080808080808087
:102A400080808080808080F0E0C08000000000FFF7
:102A5000FF0000000000000000000080808080A0D7
:102A60008080808080800000000000000000000066
:102A700000FFFF0000001838785858181E33010175
:0D2A8000021E2B1B020401414961532E0070
:102A8D0000FFFFFFFF00000000000000000000003D
:102A9D00FFFFFFFFFF00000000000000000000002E
:102AAD000000FFFF0002070F1F3F7F0F0F0F0F0FDB
:102ABD000F0F0F0F0F0F0F0F0F0F7F3F1F0F07027E
:102ACD000000FFFF000000000000000000001731B3
:102ADD0001070101070109090107000000000000BD
:102AED0000000000FFFF00000000000100000000DA
:102AFD0000000000000000000000000000000000C9
:102B0D0000FFFFFFFF808080808080808081838731
:102B1D008F9FBF9F8F878381808080808080808002
:102B2D008080FF7F0080808080808080808080809A
:102B3D008080808080808080808080808080808088
:102B4D008080FF7F0080808080808080808080807A
:102B5D008080808080808080808080808080808068
:102B6D0080808080FF7F008080808080808080805A
:102B7D008080808080808080808080808080808048
:032B8D0080FF7F47
:102CEC0000000000000000000000000000FEFEFEDE
:102CFC00FEFEFE7E7E7E7E7E7EFEFEFEFEFE0000E4
:102D0C0000FEFEFEFEFE7E7E7E7E7E7E7EFEFEFE55
:102D1C00FEFE0000000000000000000000000000AB
:102D2C00008080808080808080808080001F1F1FBA
:102D3C001F1F1F000000000000FFFFFFFFFFF0F04F
:102D4C00F0FFFFFFFFFF000000000000001F1F1F2F
:102D5C001F1F0000C0C0C0C0C0C0C0C0C0C0C0C029
:102D6C0000FFFFFFFFFFFF0F0F0F0F0F000000070B
:102D7C00070738383838000000FFFFFFFFFFFFFF60
:102D8C00F1E1C18101010000000038383838070733
:102D9C00070000000F0F0F0F0F0FFFFFFFFFFFFFCC
:102DAC0000FFFFFFFFFFFFFCFCFCFCFCFCFCFCFC41
:102DBC0000000080C0E0F0F8FCFF7F3F1F0F07030E
:102DCC0003070F1F3F7EFCFCFCFCFCFCFCFCFCFC2A
:102DDC00FCFCFCFCFCFCFCFCFCFCFFFFFFFFFFFF15
:102DEC0000F8F8F8F8F8F8F8F8F8F8FFFFFFFFFF2C
:102DFC00FEFEFFFFFFFFFFFFFFFCF8F0E0C08000CE
:102E0C000080C0E0F0F8FCFF7F3F1F0F07030101BB
:102E1C00FFFFFFFFFFFCFCFCFCFCFCFCFCFCFCFCD7
:102E2C0000FFFFFFFFFFFF8080808000000000801C
:102E3C008080707070700000000103070F1F3F7FCF
:102E4C00FFFFFFFFFFFFFF000000707070708080BD
:102E5C0080000000808080808080FFFFFFFFFFFFEC
:1030D400103F003F0201013E001E2121211E00601D
:1030E400100E11600000003F001F2A292916005FFE
:0830F400001C224141417F0054
:1030FD000020103F001A2929291E001E2121127FB0
:10310D00001F20203F20203F003F0201013E001FF5
:08311D002020203F00000020EB
:10312600FFFF21213F1E00BFBF00FFFF001F3F29F9
:103136002F16003C3F033F3C001F3F20203F3F002F
:08314600BFBF00000000000003
:10314F00000000000000E0FBFBE0000000FFFF219B
:10315F00213F1E0020203F3F001F3F292F16001246
:08316F0033213F1E00000000A7
:1031780000000000000000000F1F18187F7F0016D5
:10318800372D2D3B1A005F5F007F7F001E3F2525EE
:103198003D18001F3F20203F3F004949497F7F00DD
:0831A80000000000000000001F
:1031B100F8080E0E8E8E8E0E8E8E8E8E0E8E8E8E4A
:1031C1008E8E8E8E0E0E8E8E8E0E0E0E0E8E8E0E9E
:1031D1000EF8F8080E0E0E0E0E0E0E0E0E0E0E0E40
:1031E1000E0E0E0E0E0E0E8E8E8E0E0E0E0EFEFE9E
:1031F100FFFF000E160C06061E3606001E06060709
:103201000C0000001E06061E062626061C0000FFF6
:10321100FF00000000133326263C1C003F3F3C0FFB
:10322100010F3C3F3F001C3E22223F3F000000FFB8
:10323100FF000000070D0100030103010301011755
:103241001101010153572D01011F00000305030066
:1032510000FFFF0000001838785858181E3301018C
:10326100021E2B1B020401414961532E0000FFFF86
:1032710000FFFFFFFFFFFFFFFFFF00000000E0E096
:10328100606060C00078CC040408E060606060C0E9
:1032910000000000000000FFFF00E06060E060C08F
:1032A100606060C000E060E078CC0C0C4C3800003D
:1032B10000E0686060C000FFFF000078181878180F
:1032C10018785838F818187A1A1838583018181801
:1032D100F00078189898187000FFFF0000000000B7
:1032E10001000000000000000000000000000000DC
:1032F100000000000000FFFFFFFF808080808485C8
:1033010083808087808080808080818082828081AC
:1033110080808080808080FF7F00858480808180A4
:103321008080808780808080808080808080808095
:1033310080818080808780FF7F0080818180818083
:103341008080818083838080808080808080808075
:10335100818080808080808080FF7F00808080806D
:10336100808080808080808080808080808080805C
:10337100808080808080FF7FF8F8080E0E0E0E8E10
:103381008E8E0E0ECE0E0E0E0E0E0E0E0E8E8E8E1C
:103391000E0E0E8E8E8E0EF8F8080E0E0E0E0E0EFE
:1033A1000E0E0E0E0E0E0E0E0E0E8ECE4E4E8E0EFC
:1033B1000E0E0E0E0E0E0EF8F8080E0E8E0E0E0EDE
:1033C1000E0E0E0E0E0E0E0E0E0E0E0E8ECE4E4E5C
:1033D1008E0E0E0E0E0E0E0E0EF8F8080E0E0E0EBE
:1033E1000E0E0E0E0E0E0E0E0E0E0E0E0E0E0E8E7C
:1033F1008E8E0E0E0E0EFEFEFFFF00BC0C0C0F1982
:103401000000001C2D0E00FC007C6C0C0F5900000C
:10341100FC000F19000000FFFF00003C0D0C0CF830
:103421000000004E5E3606067C00070C0000001E00
:10343100062626061C0000FFFF00001E0606067E6B
:10344100140C0000004E5E3606067C00070C0000DE
:10345100001E062626061C0000FFFF00000018388B
:10346100785858181E330101021E2B1B020401411A
:103471004961532E0000FFFFFFFF0000008000E0C4
:10348100301010208080808080818080000000C00A
:10349100E0B030E0000000FFFF000000000000E0AD
:1034A1006060E06060E060E0E06060E86860E06EFD
:1034B10070000000000000FFFF00000000E0E0607D
:1034C1006078CC040408E00078CC040408E060E0F3
:1034D10078CC0C0C4C38000000FFFF00000000000D
:1034E10001000000000000000000000000000000DA
:1034F100000000000000FFFFFFFF8080809F8081AF
:103501008380808097918183959381819F80808240
:1035110082818081808080FF7F00808080808085A3
:0D35210084808580808185808F8C808180F2
:10352E0080808180808080808080FF7F008080808E
:10353E0094958B8080828080808780808080808040
:10354E00808286808080808080808080FF7F008067
:10355E00808080808080808080808080808080805D
:10356E00808080808080808080FF7FF8F8080E0E3B
:10357E000E0E0E0E0E0E0E0E0E0E0E0E0E0E0E0E5D
:10358E000E0E0E0E0E0E0E0E0E0EF8F8080E0E0E7F
:10359E000E0E0E0E0E0E8E8E0E0E0E0E0E0E0E0E3D
:1035AE000E0E0E0E0E0E0E0E0E0EF8F8080E0E0E5F
:1035BE000E0E0E0E0E0E0E0E0E0E0E0E0E0E0E0E1D
:1035CE000E0E0E8E8E8E0E0E0E0E0E0EF8F8080EBF
:1035DE000E0E0E0E0E0E0E0E0E0E0E0E0E0E0E0EFD
:1035EE000E0E8E8E8E0E0E0E0EFEFEFFFF000000D5
:1035FE0070307030603030F4343070307030603095
:10360E0030F0303070B738000000FFFF00000000CF
:10361E00000000FC000F150D0102FC0C0C3D0D0C02
:10362E000CFC2818180000000000FFFF000000002E
:10363E0000000078D8180038183818301818781884
:10364E0018181F0D01110F0000000000FFFF0000F1
:10365E00001838785858181E330101021E2B1B0211
:10366E000401414961532E0000FFFFFFFF000000DF
:10367E0000E060E060C0606060C00080C040E0605C
:10368E0060E262606060C0000000FFFF0000C0C02A
:10369E00C0C080C0C0C08000C0C0C1C0C0C0C0C05B
:1036AE00C0C08000F09808081000FFFF0000000066
:1036BE0000000000C0C0C0C0C0C0C0C0C0C0C1C1FA
:1036CE00D0D0C0C0DCE0000000000000FFFF000012
:1036DE0000000001000000000000000000000000DB
:1036EE00000000000000000000FFFFFFFF80808050
:1036FE0080808080808080808087808082828281AE
:10370E0080818082828081808080FF7F00808180A6
:10371E008180818080808F8080818B8282808B8867
:10372E0080808F80808180808080FF7F008080807D
:10373E00808080808B88808B8080838A819F988018
:10374E00838080818280808080808080FF7F008067
:10375E00808080808080808080808080808080805B
:0B376E00808080808080808080FF7F52
:1037B0000000000000000000000000000000000009
:1037C00000000000000000000000000000000000F9
:1037D00000000000000000000000000000000000E9
:1037E00000000000000000000000000000000000D9
:1037F1007F03030F0B077F6303072B0703023E00C1
:10380100000000272F1B03033E0003060000000FEA
:10381100031313030E0000000003060000003F0025
:10382100000000030203000000003F000306000047
:013831000F87
:0F38320000000000000000000000000000404007
:103845001B0300000000272F1B032F03030F030397
:033855000F1B0343
:06385E0000001F78E000ED
:063868000000E07F7CE09F
:0638720000C060FF78E0D9
:06387C0000B0B0FF38604F
:06388600001E73C7330EA3
:06389000006030BCB770BF
:06389A0000F81C033EF8DB
:0638A400001F3CC03C0FB8
:0638AE000003FFB0B06052
:0638B8000000060F0600EF
:0638C20000000000000000
:103CB4000000000000000000001CAC2C1C0C180CC0
:103CC4000C1951716F4E000000082C242E16060E9C
:083CD400160C0606FE060606AA
:103CE6005E144C0C000000FC001C2CAC1C0C180CC8
:103CF6000C0CF800BC34043D0D0C0CBC28981800C4
:083D06000000000000000000B5
:103D180000000000000000001C2CAC1C0C180C1D3E
:103D28005971794F06000000FC00FC0C0C3C0D0C8E
:083D38003C2C1CFC8C0C0CF867
:103D4A0000BCB606065C144C0C0000001E330101D0
:103D5A00000C1C3D2C2C0C0CF800082C2E3E0606E0
:083D6A00000000000000000051
:103D7C0000003C66030300390C0D0C0C0CF800FC25
:083D8C00020303130E00000006
:103D9A000EFEC606065E144C0C0000003C660202CB
:103DAA0000081C3D2C2C0C0CF80000082C2C3C0C98
:103DBA0004000000000000000000000000000000F5
:103DCC00000000000000000000000000000000FCEB
:103DDC0000BC0C0CBC8C0C3CAC1CFC8C0C0E1B01ED
:103DEC000100000000FC0606060E1E1616061E56E6
:103DFE0000000000000000000000000000000000B5
:103E0E0000000000000000000000000000000000A4
:103E1E000000000000E0E0600000000000C0C0C034
:103E2E00C0C0C0C0C0C0C0F038181818F0000000E4
:103E44000000C000C0C0C0C0D0C0C0C0C0C0C0C09E
:103E5400C08000C0C0C0C0C0C0008080000000009E
:103E6400000000000000000000000000000000004E
:103E7400000000000000000000000000000000003E
:103E8A000000000000000000000000000000000028
:103E9A000000000000000000000000000000000018
:103EAA0000000000181F0102060E000000010A08A7
:103EBA00010A0001000100010300000100000000E6
:103ED00000001F001B1C0001020003020137380014
:103EE000001F00072A2600000F0503010000000044
:103EF00000000000000000000000000000000000C2
:103F000000000000000000000000000000000000B1
:103F16000000FC001058485C2C0C3C6C0C000000A7
:103F2600FC00C0FE1E66E000B88C0C1C2C2C1C0C81
:103F3600180C0C0CF800FE03031E000000003C0DDC
:103F46000C0CFC28181800060600060600060600DB
:103F5C00000000000000FC00F80C0C1C4CDC4C18A1
:103F6C000C0C0E190101003C2C1CFC8C0C0CBC28FC
:083F7C0098180000000000008D
:103F8500000000000000000000000000FC00FC0C28
:103F95000C3C2C1CFC8C0C0E150D010200FC001EAB
:103FA5003301010016170DA1A65000000000000006
:083FB500000000000000000004
:103FBE00000000000000007E001E3606007E001E7F
:103FCE00330101000C160E000000FC00C0FE1E6640
:103FDE00E00C1E160EFEC6060E560E06067C0014CD
:083FEE001C0E0200000000009F
:103FF70000000000FC003C2C1CFC8C0C0CF00C3668
:1040070066C21058485C2C0C0CF8003C0C4C4C0C4D
:10401700380000FC00F80C1C34681C0C0CF800BCC1
:104027008C0C1CAC1C0C3D0D0C0CBC28981800000B
:10403800003C3C3C7EFFFF0018002418423C817E77
:104074000000001C2C180C0C8C8C98B86C0C0CF8E0
:1040840000FC0C0C1C2C180C0C0CBC289818000000
:1040940000FC00FC0C0C1C2C180C0C0C1C3D2C2CD7
:1040A4000C0CF800BC0C0C3D0D0C0CBC2898180032
:1040B50000000000000000000000000000000000FB
:1040C50000000000007E009E5A027F0101090600E3
:1040D500000000FE40F60A36424080082424241CD5
:1040E500040C54440C150404FC001C0201010000DE
:1048440000000000000000000000000000FEFEFE6A
:10485400FEFEFE7E7E7E7E7E7EFEFEFEFEFE000070
:1048640000FEFEFEFEFE7E7E7E7E7E7E7EFEFEFEE2
:10487400FEFE000000000000000000000000000038
:10488400008080808080808080808080001F1F1F47
:104894001F1F1F000000000000FFFFFFFFFFF0F0DC
:1048A400F0FFFFFFFFFF000000000000001F1F1FBC
:1048B4001F1F0000C0C0C0C0C0C0C0C0C0C0C0C0B6
:1048C40000FFFFFFFFFFFF0F0F0F0F0F0000000798
:1048D400070738383838000000FFFFFFFFFFFFFFED
:1048E400F1E1C181010100000000383838380707C0
:1048F400070000000F0F0F0F0F0FFFFFFFFFFFFF59
:1049040000FFFFFFFFFFFFFCFCFCFCFCFCFCFCFCCD
:1049140000000080C0E0F0F8FCFF7F3F1F0F07039A
:1049240003070F1F3F7EFCFCFCFCFCFCFCFCFCFCB6
:10493400FCFCFCFCFCFCFCFCFCFCFFFFFFFFFFFFA1
:1049440000F8F8F8F8F8F8F8F8F8F8FFFFFFFFFFB8
:10495400FEFEFFFFFFFFFFFFFFFCF8F0E0C080005A
:104964000080C0E0F0F8FCFF7F3F1F0F0703010148
:10497400FFFFFFFFFFFCFCFCFCFCFCFCFCFCFCFC64
:1049840000FFFFFFFFFFFF808080800000000080A9
:104994008080707070700000000103070F1F3F7F5C
:1049A400FFFFFFFFFFFFFF0000007070707080804A
:1049B40080000000808080808080FFFFFFFFFFFF79
:10426800000F0F0F0F0F0F0F0F0F0F000000E0E3ED
:10427800E3E3E0000000000000FEFEFEFEFE3E3E1E
:104288003F3FFFFFFFFFFF000000000000C0C3C367
:10429800C3C0C0000707070707070707070707077F
:1042A8000000000000000000000000000000FFFF08
:1042B800FFFFFFFCFCFCFCFCFCFFFFFFFFFF000016
:1042C8000000FFFFFFFFFFFCFCFCFCFCFCFFFFFF06
:1042D800FFFFFF00000000000000000000000000D9
:104C2C0000FC00FC0C0C0E1B010100BEB6060F1F95
:104C3C000606030101000000000000000000000057
:084C4C00000000000000000060
:104C5500000000000000000000000000000000004F
:104C650000000000FC003C2C1CFC8C0CFC0C0C3CDB
:084C75000C0D0C0C38000000CE
:104C7E001E330101000000001C2C2C1C0C180C0C07
:104C8E000C1C3C2C2C0C3D0D0C0C1C3C2C2C0C0C24
:084C9E007C281818000000003A
:104CA70000000000000000003C0D0C3C2C1CFC0C1C
:104CB7000C0CF800BCB606063C140C0800000010EB
:084CC70050583898183A1A18E9
:104CD00000000000000000000000000000000000D4
:104CE000F800F01818587058181C220100003C0DEC
:104CF0000C3D0D0C0CBC28981800000000000000B2
:084D00000000000000000000AB
:105308000000000000000000000000000000000095
:105318000000000000000000000000000000000085
:105328000000000000000000000000000000000075
:105338000000000000000000000000000000000065
:105349007F03030F0B077F6303072B0703023E004D
:10535900000000272F1B03033E0003060000000F77
:10536900031313030E0000000003060000003F00B2
:10537900000000030203000000003F0003060000D4
:015389000F14
:0F538A0000000000000000000000000000404094
:10539D001B0300000000272F1B032F03030F030324
:0353AD000F1B03D0
:0653B60000FFFF60300063
:0653C00071F98DC74300E6
:0653CA006EFF91C34200DA
:0653D40004FFFF44340C4D
:0653DE008E9FD1F33A009E
:0653E8004EDF91FF7E0084
:0653F200C0F0BF8F800037
:0653FC006EFF91FF6E0040
:065406007EFF89FB72002D
:065410007EFF81FF7E001B
:06541A000000000000008C
:10580C000000000000000000000000000021FF7EEE
:10581C002000BFBF00FFFF213F1E001A293F1E20A2
:08582C00203F3F80C3673F18D5
:10583E00FFFF000000001F3F203F3F00BFBF001AC8
:10584E00293F1E80C3673F18FFFF000000000000C5
:08585E00000000000000000042
:10587000001A293F1E0021FF7E20203F3F001F3FCE
:105880002927033F18FFFF0000001F3F203F3F0074
:08589000BFBF0000001A293F10
:1058A2001E00BFBF001627391A0000001F3F203F0D
:1058B2003F001A293F1E001F3F20FFFF001A293F09
:0858C2001E003E7F657D190008
:1058D40000122529291200FF001F2A29291600BFBA
:0858E400006196989090FF000E
:1058F200391A000000001F3F203F3F001A293F1EB7
:105902000021FF7E2000203F3F001F3F2927003853
:105912003F0738073F380000000000000000000089
:1059240000000000000000000000001A293F1E00D3
:1059340021FF7E200021FF7E2000BFBF001E3F21EB
:10594400FFFF000000001A293F1E00BFBF001627FA
:105956000000004020E0C020E0C0000000E0E000C1
:10596600E0E020E00020606080E0E000004020E011
:10597600C00000E0E000E0E000E0E000E0E0000061
:105986000000E0E000E0E0004020E0C000C0E020D1
:10599C004000C0E02040004020E0C000F0F828F8B3
:1059AC00D00000E0E0004020E0C00000E060E0003B
:1059BC00000020E0C00000E0E000E0E000C0E020DB
:1059CC00E0C000E0E020E0C00000000000000000AB
:1059E20000000003050703041F0F0400040707005B
:1059F2000307050400180C07033F3F0000030507D7
:105A02000304040707000307043F3F003737000081
:105A12000000030704070700030507030003050747
:105A2800030003050703000305070300070704072E
:105A38000304040707000305070300060700070619
:105A48000000041F0F0400030704070700030704EE
:105A58000703003F3F0407030000000000000000A8
:105A6E001D150E000F097F005F001D150E000F089B
:105A7E007F000A11110E00171509007F000F087F15
:105A8E00001F1513001E011E011E101F001D150EF6
:105A9E00007F090F001D150E005F001E011E011E66
:105AB4000000000000BFBF001A293F1E00313D2F27
:105AC4002300BFBF00FFFF001E3F213F1E0078FCE4
:085AD40084FFFF000000000048
:105ADD0000000000000000000000000000FFFF00BB
:105AED00FFFF001F3F292700A0FF7F200021FF7E21
:105AFD0020001E3F213F1E00FFFF0E70FFFF000024
:085B0D00000000000000000090
:105B160000000020203F3F001F3F20FFFF001A2902
:105B26003F1E00383F0738073F380020203F3F0020
:105B36001A293F1E003F3F013F3E001A293F1E0023
:085B4600909090FFFF000000A9
:105B4F000000001F3F203F3F001E3F213F1E00BFB0
:105B5F00BF0021FF7E20001F3F2927001F3F201F6E
:105B6F003F203F3F0020203F3F001E3F213F1E00B0
:105B7F00A0FF7F20001F3F203F3F00FFFF000000DE
:105B9000003C3C3C7EFFFF0018002418423C817E04
:105BCC0000000000000000000000000000000000C9
:105BDC00FFFF00FFFF001F3F29270012213F1E007F
:105BEC00000000BFBF001A293F1E20203F3F00903D
:105BFC009090FFFF0000000000000000000000007B
:105C0D000000000021FF201225292912001F2A293A
:105C1D002916001A2929291E00FF0021FF201F2AFD
:105C2D0029291600000000FF1221211E001A292922
:105C3D00291E001A2929291E00FF020C3040FF00E1
:10639C0000000000000000000000000000FEFEFEF7
:1063AC00FEFEFE7E7E7E7E7E7EFEFEFEFEFE0000FD
:1063BC0000FEFEFEFEFE7E7E7E7E7E7E7EFEFEFE6F
:1063CC00FEFE0000000000000000000000000000C5
:1063DC00008080808080808080808080001F1F1FD4
:1063EC001F1F1F000000000000FFFFFFFFFFF0F069
:1063FC00F0FFFFFFFFFF000000000000001F1F1F49
:10640C001F1F0000C0C0C0C0C0C0C0C0C0C0C0C042
:10641C0000FFFFFFFFFFFF0F0F0F0F0F0000000724
:10642C00070738383838000000FFFFFFFFFFFFFF79
:10643C00F1E1C1810101000000003838383807074C
:10644C00070000000F0F0F0F0F0FFFFFFFFFFFFFE5
:10645C0000FFFFFFFFFFFFFCFCFCFCFCFCFCFCFC5A
:10646C0000000080C0E0F0F8FCFF7F3F1F0F070327
:10647C0003070F1F3F7EFCFCFCFCFCFCFCFCFCFC43
:10648C00FCFCFCFCFCFCFCFCFCFCFFFFFFFFFFFF2E
:10649C0000F8F8F8F8F8F8F8F8F8F8FFFFFFFFFF45
:1064AC00FEFEFFFFFFFFFFFFFFFCF8F0E0C08000E7
:1064BC000080C0E0F0F8FCFF7F3F1F0F07030101D5
:1064CC00FFFFFFFFFFFCFCFCFCFCFCFCFCFCFCFCF1
:1064DC0000FFFFFFFFFFFF80808080000000008036
:1064EC008080707070700000000103070F1F3F7FE9
:1064FC00FFFFFFFFFFFFFF000000707070708080D7
:10650C0080000000808080808080FFFFFFFFFFFF05
:105DC000000F0F0F0F0F0F0F0F0F0F000000E0E37A
:105DD000E3E3E0000000000000FEFEFEFEFE3E3EAB
:105DE0003F3FFFFFFFFFFF000000000000C0C3C3F4
:105DF000C3C0C0000707070707070707070707070C
:105E00000000000000000000000000000000FFFF94
:105E1000FFFFFFFCFCFCFCFCFCFFFFFFFFFF0000A2
:105E20000000FFFFFFFFFFFCFCFCFCFCFCFFFFFF92
:105E3000FFFFFF0000000000000000000000000065
:10678400001627391A00001F3F203F3F001A293FF7
:106794001E007F7F000F1F107F7F001F3F292700EF
:0867A400383F0738073F3800B9
:1067AD00007F7F000F1F107F7F001F3F29270031C3
:1067BD003D2F230000000F1F101F1F005F5F000003
:0867CD00001D253F1E005F5F67
:1067D600253D1900BFBF0021FF7E2000FFFF001FDF
:1067E6005F015F1E001E3F253D19001F3F203F3FF2
:0867F600003F3F013F3E00009F
:1067FF000000001A293F1E21FF7E2000203F3F008E
:10680F001F3F29270041231718FFFF0020203F3F7C
:08681F00001A293F1E001E3F74
:10682800347652527E3C001E3030FEFE0042427EDC
:106838003C002C6E5A5A76340042FEFC403E3E0222
:106848003E3C00347652527E3C007CFE8282FEFE44
:08685800000000000000000038
:10686100000000000F000000000000000000F80020
:106871000000000000000000003F00000000606018
:10688100606060C000000000000000402F40200058
:10689100000000000000F8000000000000000103FB
:1068A1000000000000000000E06060646E64606051
:1068B10000000001030000000000606060E0606013
:1068C100646E64600001030000000000020160E0EA
:1068D1006060646E646060C001030000000000003D
:1068E1000201E06060646E64606060C000000001ED
:1068F100030000000000000000E0646F656E64604A
:1069010000000001030000000000606060E0646EB0
:10691100636C64600001030000000000020160E09C
:10692100646E636C646060C00103000000000000DD
:106931000201E060606C6B676C6060C00000010385
:106941001038103810000000E06060606060606026
:1069510000000001031038103810606060E06060D2
:10696100606060600001031038103810020160E0BF
:1069710060606060606060C00103000C08040C008E
:106981000201E06060606060606060C0000001134F
:1069910058F0581000000000E060606060606060C6
:1069A10000000001031058F05810606060E0606062
:1069B10060606060000103001058F058120160E04F
:1069C10060606060606060C00103000C38340C00DE
:1069D1000201E06060606060606060C00006060601
:1069E100070706030000000020702000C0606060FF
:1069F100000006070607060603006060C0001038A5
:106A010090C060600006070606070706030060E203
:106A11008323732303867C0000000606060707060E
:106A2100030000020323732303867C000000060693
:106A310006070706030000287C28702000C060605C
:106A4100000607060607070603006060D43E1438F7
:106A510010C060600006070606070706030060E233
:106A610083635B3B63867C0000000606060707061E
:106A71000300000203635B3B63867C00000606069D
:106A8100070706030000000000000000C06060600E
:106A9100000006070607060603006060C00000004C
:106AA10080C060600006070606070706030060E273
:106AB1008303030303867C0000000606060707061E
:106AC100030000020303030303867C00000606267D
:106AD100772706030000000000000000C06060602E
:106AE100000006072677260603006060C00000004C
:106AF10080C060600006072676270706030060E273
:106B01008303030303867C0000000606267727061D
:106B1100030000020303030303867C00000000035B
:106B2100070E00000000606040E0606060600000EF
:106B31000000000003070E00000000000000E060FC
:106B410060606000000000000347EE4000006060EC
:106B51006040E060606060000000000347EE4000BC
:106B61000000000000E060606060000000000001C3
:106B7100030000000000606040F0381C0C081000A9
:106B810000000001030000000000000000F0381CBC
:106B91000C0810000000002173200000000060605C
:106BA10040F0381C0C0810000000000113381000E0
:106BB1000000000000F0381C0C081000000000115B
:106BC1005BF058100000606040F0381C0C081000A9
:0D6BD10000000019736818000000000000AB
:106BDE00F0381C0C0810000001000100000100003C
:106BEE000000E060C06060E04060600000010001F5
:106BFE0000000100006040E060C06060E0406001A5
:106C0E00000100000100000100E060C06060F81C9F
:106C1E000C1CF801000100000100000100E060C042
:106C2E006060F81C0C1CF80001001158F05910009F
:106C3E000000E060C06060E040606000000110593C
:106C4E00F0581100006040E060C06060E0406011EC
:106C5E0058F158100100000100E060C06060F81C9F
:106C6E000C1CF81158F158100100000100E060C032
:106C7E006060F81C0C1CF80001020101000100000C
:106C8E000000C06060E0E0E04060600000010201D2
:106C9E0001000100006040C06060E0E0E040600183
:106CAE00020101000100000100C06060E0E0F81C7C
:106CBE000C1CF801020101000100000100C060601F
:106CCE00E0E0F81C0C1CF800010211391001000064
:106CDE000000C06060E0E0E0406060000001021172
:106CEE0039100100006040C06060E0E0E0406001EB
:106CFE00123911000100000100C06060E0E0F81CD4
:106D0E000C1CF801123911000100000100C0606076
:106D1E00E0E0F81C0C1CF80003060602037F3000AE
:106D2E000000E060606060E0E06060000003060666
:106D3E0002037F30006040E060606060E0E0600071
:106D4E000003060602037F30006040E06060606072
:106D5E00E0E0000000010100001F0C000000F898A8
:106D6E009898D8F8381818000346E642037F30008A
:106D7E000000E060606060E0E0606000000346E6F6
:106D8E0042037F30006040E060606060E0E06000E1
:106D9E00000346E642037F30006040E060606060C2
:106DAE00E0E00000091D08001F0C000000F8989894
:106DBE0098D8F838181800000001040C0C0C0D07B8
:106DCE000000000080C0C0C0E0606000000003074B
:106DDE00070703000060606060E0C0E06060600074
:106DEE000000000307070300006060626363C38353
:106DFE00463C0000000001090809070000000002DF
:106E0E00038383C3663C000001040C4CEC4D070069
:106E1E0000000080C0C0C0E060606000000003475A
:106E2E00E74703000060606060E0C0E06060600003
:106E3E000000000347E74300006060626363C383A2
:106E4E00463C0000000149E849070000000002032B
:106E5E008383C3663C0000000000074FED4700002F
:106E6E0000000000E0606060606060000000074E9F
:106E7E00EC47000000606060E0C0E0E06060600031
:106E8E0003267623000000020160E0C0E0E06060AF
:106E9E006060C003267623000000020100E0E0E0FF
:106EAE00E060602060C000000000074FED47E0404A
:106EBE0000000000E060606060606000000047EE6F
:106ECE004CE7400000606060E0C0E0E06060601091
:106EDE0039131339100000000060FCEE66C606067A
:106EEE00068E7C19130B19000000000000F8EC66EA
:106EFE00C60606068E7C00000060311B1E0C0000CC
:106F0E00000000E060606060606060000060301152
:106F1E001B0E0C00006060E0C080C06060606060AE
:106F2E0030111B0E0C00000001E0C080C0606060DC
:106F3E006060C000311B1E0C0000000201E06060AA
:0D6F4E00606060606060C0000060B15B5E6C
:106F5B002C0000000000E06060606060606000007A
:106F6B006030915B2E2C00006060E0C080C06060E0
:106F7B00606060B0D15B2E2C00000201E0C080C0CD
:106F8B006060606060C000B15B5E2C0000000201BD
:106F9B00E06060606060606060C000000000337C97
:106FAB000000000000000000E06060606060000016
:106FBB00000000337C0000006060606060C06060B7
:106FCB006060000037780000000100006060F0187E
:106FDB000C0C0C0CF80000003778000000010000CE
:106FEB000000F0180C0C0C0CF8000000010303015E
:106FFB00000000000000E06040C0606060600000C6
:10700B000001030301000000606060E06040C060AD
:10701B00606000000000010303010000606060403D
:10702B00E0E060673800000000010303010000008E
:10703B00000000E0E06067380000000000113B102A
:10704B0000000000000000E0606060606060000015
:10705B000000113B1000000060606060C060606069
:10706B0060600000010300081C08010060E0F81CD0
:10707B000C0C0C0C1CF800010300081C0801000090
:10708B0000F81C0C0C0C0C1CF80000000103010098
:10709B00000000006060F078CC0C0C0810000000C1
:1070AB0001030100000000000000F078CC0C0C087C
:1070BB001000000103070E010000000000E060E07B
:1070CB00C0E0606060600000000706030000000085
:1070DB006060607CF66CF86060600000001F050566
:1070EB0003010000606060C0008080800000000031
:1070FB00000003070000000000000000C060E0007B
:10710B00000000000001030000000000000000E48C
:10711B006E646E64606000000001030000000000FC
:10712B00606064EE646E64606060000000000000EC
:10713B000000000060607C7636030303631E0003CF
:10714B00030100000000000000707868EC0C0C8C50
:10715B0078000000000000000000000000000000AC
:10716B000000000000000000000107070100000004
:10717B00000C7CF09090F07C0C00000307040407DB
:10718B000700000000B8FC4444FCFC0000000002B7
:10719B00060404040703000000080C040404FCF8B4
:1071AB0000000001030604040707000000F0F80CC0
:1071BB000404FCFC000000040404040707000000A6
:1071CB000004444444FCFC000000000404040407D5
:1071DB00070000000000404040FCFC0000000002E3
:1071EB000604040407030000007C7C4C4404FCF8F8
:1071FB0000000007070000000707000000FCFC4030
:10720B004040FCFC000000000007070000000000ED
:10721B00000000FCFC00000000000000070700005D
:10722B00000000000000F8FC041C18000000000027
:10723B00040603010707000000040C1830E0FCFCF7
:10724B000000000000000007070000000004040419
:10725B0004FCFC0000000007070100000107070009
:10726B0000FCFCE07878E0FCFC0000070700000362
:10727B000707000000FCFC38E0C0FCFC000000032A
:10728B00070404040703000000F8FC040404FCF8E2
:10729B000000000307040404070700000080C0403F
:1072AB004040FCFC0000000307040404070300003B
:1072BB0000FAFE1C1404FCF800000003070404048D
:0D72CB000707000000BCFC404040FCFC0038
:1072D800000002060404070300000000387C444450
:1072E800CC88000000000404070704040000000024
:1072F8000000FCFC00000000000007070000000779
:1073080007000000F8FC040404FCF800000006076D
:10731800010000010706000000C0F03C3CF0C0007E
:107328000007010000010100000107C0F03C3CF02B
:10733800F03C3CF0C0000607010000010706000011
:107348000C1CB0E0E0B01C0C0000060701000001B6
:1073580007060000000080FCFC8000000000060713
:107368000504040404040000040484C464341C0CEC
:107378000000000000010F0400000000000000F8F9
:1073880000000000000000080407070E00000000CD
:10739800000000F8800000000000000C060E030F3B
:1073A8000E00000000000000F8800000000000024D
:1073B800090907070600000000000000F8C00000E7
:1073C8000000000003070E010000000000F89810FC
:1073D800188878000000000309090507000000006C
:1073E80000008080C03018000000000C0F01010769
:1073F8000C000000000000E0F000000000000000A9
:1074080000030700000000000030F08080E030003A
:1074180000000000070D0907000000000010F080C0
:1074280080000000000000000001000000000000D3
:107438000000C0E0C000000000000020100F07009E
:1074480000000000000408F0E00000000000000058
:1074580000070F1020000000000000E0F008040002
:107468000000007078007870000000000000000044
:10747800000000000000080402013F0102040800A7
:1074880020408000F8008040200000020F02020F18
:10749800020000000020F82020F820000000070467
:1074A8000909090804030000C024C42424C408F0FE
:1074B8000000000303030303030000000030303022
:1074C8003030300000000003030303030300000012
:1074D800000000000000000000000101010F0F0182
:1074E80001010000808080F0F08080800000080C9E
:1074F80006030100000000000000000080C06020BA
:10750800000B1B051B3E1B051B0B00A0B040B0F871
:10751800B040B0A0000010091F11000E1F11111F6C
:107528000E0010091F110010091F1100635D497F2B
:107538007F410011117F7E10001A1715151D0B00D1
:107548000D1D15151F0E0070417F7F417000000052
:10755800000000004163560D7F7F41003E7F41419E
:107568007F3E000000000211117F7E10001A1715DF
:10757800151D0B000D1D15151F0E0070417F7F4155
:10758800700000000008080808080808080808082B
:10759800080808FF000000605D497F7F4100605DCA
:1075A800497F7F41003E7F41417F3E00000000FF50
:1075B8000808080808080808080808080808080843
:1075C80008080808080808080808080808FF00004C
:1075D8000000407F461C317F41003E7F41417F3E95
:1075E80000000000FF08080808080808080808083C
:1075F800080808080800000000000000000000401B
:107608007F430C717F410041417F414100000000F0
:1076180000000000017F4911110E00001011091F20
:107628001100010F1515150B0000191111110E008D
:1076380000000000004044247C44000034545454AA
:0D764800380040784418447840003844442D
:1076550044380000384444257F4100000002FE9272
:1076650022221C00002022123E2200021E2A2A2A63
:10767500160000322222221C00000000407E411E1E
:10768500417E400040300C030000013A44457F41F3
:1076950000000000000000017F4911110E000010DC
:1076A50011091F1100010F1515150B0000191111F6
:1076B500110E0000000000000000000000000000A6
:1076C500000000000000000000407E411E417E4099
:1076D5000040300C030000013A44457F41000000A2
:1076E5000000384444257F41002151494523001AB3
:1076F5002A2A2A1C000000001111113E1000191140
:1077050011110E000D1515150E000211113E100078
:107715000D1515150E00017F4911110E0000111BE5
:1077250015047F41000E1111110E000E1111110EDD
:1077350000010F1110097F41000000808848F8887A
:10774500000068A8A8A8700080F0883088F0800044
:10775500708888887000007088884AFE8200000062
:10776500000038448282FE8200C48282827C00004E
:107775000E0282FE82000000000000111B15047F2E
:1077850041000E1111110E00000E1111110E000114
:107795000F1110097F4100000000000000000D15C9
:1077A50015150E00010F1110091F110001015F11C0
:1077B50011000001017F41010000000000001A2AAC
:1077C5002A2A1C0000042222227C20023E240202D6
:1077D5003C20021E221E223E220000000000000066
:1077E50000322222221C00000202BE222200021EBA
:1077F500221E223E220000000000605C497F4100FD
:10780500417F7108717F410060417F416000001C2C
:107815002241417F4100000000001E201E203E0045
:107825001A2A2A2A1C0002FE9222221C001C22224D
:10783500221C001E201E203E4044247C440034545B
:10784500545438004078441844784000384444443F
:107855003800384444257F4100001E201E203E008C
:107865001A2A2A2A1C0002FE9222221C001C22220D
:10787500221C001E201E203E242A2A2A12001A2A13
:107885002A2A1C00021E2220123E22001C2222222D
:107895001C00042222227C2000001E201E203E0007
:1078A5001A2A2A2A1C0002FE9222221C001C2222CD
:1078B500221C001E201E203E0000000000000000CB
:1078C50000021111113E1000121515150900000DC9
:1078D5001515150E0000021111113E1000000000D3
:1078E50000000000624141413E000060417F41606F
:1078F50000013A44457F4100000000000404FC8477
:107905000400043C5454542C00043C4440247C049E
:10791500407F254545380004BC0400485454542490
:107925000000000082FEE210E2FE820070888AFEFE
:10793500820000CC529292660000000002111111E3
:107945003E10001215151509000D1515150E00022E
:107955001111113E10000000000D1515150E00192E
:107965001111110E0001015F1111000E1111110EFF
:107975000010181601131C10000000000000000084
:107985000000007F003F001F000F000700030010EC
:1079950011091F1100000D1515150E0000131915FD
:1079A50013190000131915131900011F1201011EE7
:1079B50010000E1111097F410000042222227C20B3
:0D79C50000242A2A2A1200001A2A2A2A1C4D
:1079D2000000042222227C2000000000000000009F
:1079E200000000000000021E221E223E22021E2A69
:1079F2002A2A160000242A2A2A1200113E10000DFB
:107A02001515150E00017F4911110E00000211110A
:107A1200113E10000D1515150E0012151515090051
:107A2200017F4911110E00010F1110091F11000FE2
:0B7A32001515150B00010F1110097F46
:03000000027D3846
:0400030012885A32D3
:04000B0012ADF03210
:0100130032BA
:04001B001288CA324B
:04002B0012B33C329E
:107D3800758F00758E1075818075A800C297C294E2
:107D4800C2A7C293D292C296129230D280D281D266
:107D580082D283C284C285C286C287C2A4C2A52039
:107D6800801AD284D285D286D287D2A4D2A5C280E4
:107D7800C281C282C28320A50312CE80129230D261
:107D880080D281D282D283C284C285C286C287C28F
:107D9800A4C2A520831AD284D285D286D287D2A43F
:107DA800D2A5C280C281C282C28320A50312955D7A
:107DB800129230D280D281D282D283C284C285C24A
:107DC80086C287C2A4C2A520811AD284D285D2864F
:107DD800D287D2A4D2A5C280C281C282C28320A582
:107DE80003129571129230D280D281D282D283C28C
:107DF80084C285C286C287C2A4C2A5308217D28433
:107E0800D285D286D287D2A4D2A5C280C281C282AC
:107E1800C28320A5031295A212D5A31295A2D284DB
:107E2800D285D286D287D2A4D2A5C280D281D2826C
:107E3800D28320840512814D8002C262D284D28509
:107E4800D286D287D2A4D2A5C280D281D282D2834E
:107E58002085051281518002C263D284D285D286E0
:107E6800D287D2A4D2A5C280D281D282D2832086E0
:107E7800051281558002C264D284D285D286D28707
:107E8800D2A4D2A5C280D281D282D2832087031203
:107E98008185D284D285D286D287D2A4D2A5C28047
:107EA800D281D282D28320A403128181D284D28546
:107EB800D286D287D2A4D2A5C280D281D282D283DE
:107EC80020A50312819922D284D285D286D287D264
:107ED800A4D2A5D280C281D282D283208405128105
:107EE800598002C265D284D285D286D287D2A4D2E2
:107EF800A5D280C281D282D28320850512815D807D
:107F080002C266D284D285D286D287D2A4D2A5D222
:107F180080C281D282D2832086051281618002C20A
:107F280067D284D285D286D287D2A4D2A5D280C283
:107F380081D282D283208703128179D284D285D2DA
:107F480086D287D2A4D2A5D280C281D282D28320FF
:107F5800A403128189D284D285D286D287D2A4D2B0
:107F6800A5D280C281D282D28320A5031281A92200
:107F7800D284D285D286D287D2A4D2A5D280D28109
:107F8800C282D2832084051281658002C258D284BD
:107F9800D285D286D287D2A4D2A5D280D281C282FB
:107FA800D2832085051281698002C259D284D28584
:107FB800D286D287D2A4D2A5D280D281C282D283DD
:107FC80020860512816D8002C25AD284D285D2865B
:107FD800D287D2A4D2A5D280D281C282D28320876E
:107FE8000312817DD284D285D286D287D2A4D2A52B
:107FF800D280D281C282D28320A40312818ED284FD
:10800800D285D286D287D2A4D2A5D280D281C2828A
:10801800D28320A50312819522D284D285D286D21A
:1080280087D2A4D2A5D280D281D282C283208403EF
:10803800128171D284D285D286D287D2A4D2A5D217
:1080480080D281D282C2832085051281498002C2F2
:108058005BD284D285D286D287D2A4D2A5D280D24E
:1080680081D282C283208603128175D284D285D2BE
:1080780086D287D2A4D2A5D280D281D282C28320CE
:10808800870312818FD284D285D286D287D2A4D296
:10809800A5D280D281D282C28320A40312818DD23C
:0D80A80084D285D286D287D2A4D2A5D28000
:1080B500D281D282C28320A5031281AD22D280D281
:1080C50081D282D283C284C285C286C287C2A4C23B
:1080D500A5208005127E268006C262C263C264D2D4
:1080E50080D281D282D283C284C285C286C287C22F
:1080F500A4C2A5208105127ECF8006C265C266C2D4
:1081050067D280D281D282D283C284C285C286C21E
:1081150087C2A4C2A5208205127F788006C258C2F4
:1081250059C25AD280D281D282D283C284C285C238
:1081350086C287C2A4C2A520830512802101C2C2BE
:108145005B01C22212D9892212D7762212D7BA220E
:1081550012D8192212D8BA2212D8D72212D9382207
:1081650012D9F52212D96E2212D92B2212D9A422A4
:1081750012D9DA2212DA2C2212D9BF2212DAE92216
:1081850012DA9B2212DB06222222C2AF1295A2220C
:1081950012D91B2212CD9E12CD9E12A47A12ADF4D5
:1081A5001299392212D90D2222D2B4852280128247
:1081B5002022129223C0A8C2AF20530312924FA8C7
:1081C50024882012820FA825882012820F20790684
:1081D500D2B7C2B68004D2B6C2B7E493F5221281F3
:1081E500AEA3D523F5129230D0A82212922312966F
:1081F5000C7520C012820F75204012820F7520B8B1
:1082050012820F1299A112923022D2B6D2B7C2B4FD
:10821500852080128220C2B6C2B722D2B5000000E6
:10822500C2B50022D2B712962CC2B612962CD2B67F
:1082350012962CC2B622C2B712962CC2B612962C32
:10824500D2B612962CC2B62212921EC2B7C2B6D2AE
:10825500B712962CC2B712962CD2B612962CC2B66D
:1082650012962C2212921EC2B7C2B6D2B7129639F6
:10827500C2B7129639D2B6129639C2B6129639D20B
:10828500B612962CC2B62212921E1295C2C2B7C25F
:10829500B6D2B7129639C2B7129639D2B6129639F6
:1082A500C2B6129639D2B7129639C2B7129639D2DA
:1082B500B6129639C2B6129639D2B6129639C2B6E8
:1082C50022C0A8C2AF12921EC2B5D2D3C2D4D2B4B4
:1082D5001282297F4012823BDFFB7F2812962C12E7
:1082E500962C128269DFF5C2D3C2D4D0A822C0A8C9
:1082F500C2AF12921EC2B5D2D3C2D4D2B412822951
:108305007F6012823BDFFB7F0820B40712823BDFD0
:10831500F88009128269C2D3C2D461D21282297F40
:108325005812823BDFFB7F0820B40712823BDFF83F
:10833500801612828C1282297F6012823BDFFB122B
:108345008269C2D3C2D461D21282297F5012823B84
:10835500DFFB7F0820B40712823BDFF880231282FF
:108365008C1282297F5812823BDFFB12828C12828B
:10837500297F6012823BDFFB128269C2D3C2D4809F
:108385004C1282297F4812823BDFFB7F0820B4070D
:1083950012823BDFF8803012828C1282297F5012C4
:1083A500823BDFFB12828C1282297F5812823BDFCF
:1083B500FB12828C1282297F6012823BDFFB1282C4
:1083C50069C2D3C2D48006C2D3C2D480031284A4A6
:1083D500C2B4D0A822C00012921EC2B5D2B4128275
:1083E500291295C2128229786812823BD8FB30B4D3
:1083F5001412823B30B43312823B30B45212823BAA
:1084050030B47181A1128229780812823BD8FB12FF
:108415008269783812823BD8FB780730B40712821C
:0D8425003BD8F8807712828C807212822979
:10843200780812823BD8FB128269784012823BD8BC
:10844200FB780730B40712823BD8F8805212828C34
:10845200804D128229780812823BD8FB12826978F9
:108462004812823BD8FB780730B40712823BD8F817
:10847200802D12828C8028128229780812823BD8A1
:10848200FB1282691295C2785012823BD8FB7807A0
:1084920030B40712823BD8F8800512828C8000D05B
:1084A200002212921EC2B51295C2D2D3C2D4D2B445
:1084B2001282291282297900784812823BD8FB78ED
:1084C2000830B4010912823BD8F7E975F008A475A7
:1084D200F040A4FAABF07808790030B401091282B6
:1084E2003BD8F7E975F040A4C33AFAE5F03BFB78D4
:1084F20008790030B4010912823BD8F7E975F00817
:10850200A4C33AFA74003BFB7808790030B401093D
:1085120012823BD8F7E9C33AFA74003BF9FBEAFC52
:108522007804C3EA3CFAE93BF9D8F7E9B5690DEA00
:10853200B56A09C2D3C2D412867A8004C2D3C2D425
:1085420022C00112921E12960CC2B5C2B412822926
:10855200796E12823BD9FB12824D1295C279B11209
:10856200823BD9FBC2B47930D2B512823BD9F9E44D
:10857200C2B5D2B479A012823BD9FB30B402D2E0A8
:1085820079A012823BD9FB30B402D2E179A01282E7
:108592003BD9FB30B402D2E212823BD9FB30B402A7
:1085A200D2E312823BD9FB30B402D2E312823BD92E
:1085B200FB30B402D2E412823BD9FB30B402D2E5E2
:1085C20012823BD9FB30B402D2E612823BD9FB3095
:1085D200B402D2E7D2D3C2D4FAC2D3C2D4E4128252
:1085E2003BD9FB30B402D2E012823BD9FB30B40259
:1085F200D2E112823BD9FB30B402D2E212823BD9E1
:10860200FB30B402D2E312823BD9FB30B402D2E493
:1086120012823BD9FB30B402D2E512823BD9FB3045
:10862200B402D2E612823BD9FB30B402D2E7D2D3F3
:10863200C2D4F9C2B4C2B51291F812960C894F7520
:108642004C00754B10128D3012960C8A4F754C00EF
:10865200754B11128D30C2D3C2D4D0012222E51E35
:10866200B4A008C27CC27DC27E800CD27CC27DC214
:108672007E206F0312867A221299A1C2A712A31D2D
:10868200C27CC27DD27E1299611299613078031246
:108692009341221299A1C2A712996112996112A360
:1086A2005B12A067C27CC27DD27E307803129341F6
:1086B20022C0E0C3E56C9542F56CE56B9400F56B66
:1086C200C3D0E022C083C082C00112921E7964E04E
:1086D200B56012A3E0B5610EA3E0B5620AA3E0B5EE
:1086E2006306A3800BA3A3A3A3A3A3A3A3A3805D59
:1086F200E0C395644004600E8005A3A3A3802FA36A
:10870200A3A3A3A38047A3E0C395654004600C80A4
:1087120004A3A38019A3A3A3A38032A3E0C39566F5
:10872200400460398003A38005A3A3A3801FE0C394
:10873200956460065027A3A38013A3E0C3956560E8
:1087420005501AA38007A3E0C395665010A3D9026F
:108752008002C1D1D26F306B0BC26F8007C26F3003
:108762006B02D26FD001D082D0832230700BD26BD9
:108772009000001286C6306F08C26B9003E8128622
:10878200C622C001C002E55C1286B3128B151288A4
:10879200DCD5E0F4128842E544B4000512865F801D
:0D87A200081282F31288EF80EBD002D001A4
:1087AF0022C001C002758D3C758BAFC28EA954D902
:1087BF000D7914AA55DA05AA5B1287848A55895454
:1087CF00D28ED002D00122D2A822C2A822C0E0129B
:1087DF008A1020600280051295A2802CE55CB400FF
:1087EF00031295A2E55BB400031295A212B29E127A
:1087FF00881A128A67305E061282F3128784E5891F
:10880F004410F589D2ABD28ED0E022E55B855CF0C7
:10881F0084F578E5F0C394064002057822E51FB48D
:10882F00A002800E75A800D2AFC28EC261C25C12C8
:10883F00885A22754400E5407D008D45B545047585
:10884F004400220DBD32F375440122D26AC2AFE556
:10885F001FB4A0028050207405305C02D2742061D6
:10886F0013205C42D25C12B23B128AE01287D912FB
:10887F0087DC8032205C11D25C12B23B128AE0128C
:10888F00B29E305E211282F31286B3128B151288BC
:10889F00DC128842E544B4000512865F800812821C
:1088AF00F31288EF80EBD2AF22C2AF205C05128AA1
:1088BF00758005D26A1287B0D2AF22C0E0E551B4FD
:1088CF000F0512CC7880031288B8D0E022C0E0C325
:1088DF00E5402542F540E5413543F541C3D0E0225F
:1088EF00C3E5409432F540E5419400F541C322C001
:1088FF0083C08275440075410075400090000012DE
:10890F008DF9F543900001128DF9F542754F001264
:10891F008DB3128DE3128DC3F543128DE3128DC308
:10892F00F542900000E543F54F128E19900001E5D6
:10893F0042F54F128E1975430075422FD082D083A6
:10894F0022128DC3C32410F558128DE3128DC3C3A9
:10895F002410F559128DE3128DC3C32410F55A124A
:10896F008DE3128DE3128DC3F55BE51DB403101279
:10897F008DE3128DE3128DE3128DC3F55C8018B475
:10898F00020D128DE3128DE3128DC3F55C80081278
:10899F008DE3128DC3F55C22C082C083754C0075C8
:1089AF004B06128DC354E0030303030375F018A4A1
:1089BF00255D758322758288C32582F582E5833410
:1089CF0000F583F54CE582F54B128DC3751D01D073
:1089DF0083D08222128950E558B4020DB5311EE5BD
:1089EF0059B40105B53216800FE558B5310FE55969
:1089FF00B5320AE55AB533057559AA80037559BBC7
:108A0F0022C001C260754C19754B2679017410B5DF
:108A1F0030028005128950803C09B97904D26080F8
:108A2F00341289E3128DE3128DE3128DE3128DE37D
:108A3F00128DE3128DE3128DE3128DE3E51DB40366
:108A4F0002800D128DE3E51DB402028003128DE347
:108A5F00E559B4AAC4D00122755414E55BF55575D8
:108A6F008D3C758BAF22C001C002307826307C233D
:108A7F00758D3C758BAFD28EA954D9137914AA5525
:108A8F00DA0B2076031295A212882C80218A558941
:108A9F0054801B758D3C758BAFD28EA954D90D792F
:108AAF0014AA55DA051295A280048A558954D0026A
:108ABF00D00122C0E0C25C755414E573F555758D75
:108ACF003C758BAFE5894410F589D2ABD28ED0E0DF
:108ADF002275510BC28EC2AB22C0E0C278755414FE
:108AEF00754C38754B49128DC3F555758D3C758B8B
:108AFF00AFE5894410F589D2ABD28ED0E022755103
:108B0F000BC28EC2AB22C082C083857282857183F5
:0D8B1F00A3858371858272D083D08222C02D
:108B2C0000C001751C80128C8540262344A0C2E035
:108B3C00128CB44019E54C128CB44012E54B128CDB
:108B4C00B4400B74FF128CB44004D51CF6C3128CC9
:108B5C00A4D001D00022C000C001751C80128C85ED
:108B6C0040292344A0C2E0128CB4401CE54C128C6A
