:03000000020100FA
:0100030032CA
:01000B0032C2
:0100130032BA
:01001B0032B2
:01002B0032A2
:10010000D294D295D295B2941201B12096F6C294AF
:100110001201B1754C17754B701203CCF54F1203D9
:100120004E1205D8E54CB439F0754CFF754BF0759F
:100130004F1012034E754CFF754BF1754F111203A2
:100140004E754CFF754BF2754F1212034E754CFFF6
:10015000754BF3754F1312034E754CFF754BF475C9
:100160004F0112034E754CFF754BF5754F0212038C
:100170004E754CFF754BF6754F0312034E754CFFD1
:10018000754BF7754F0412034E754CFF754BF875A0
:100190004F0012034ED294B2951201B13096F6215F
:1001A00004D294D295B294B2951201B13096F62150
:1001B000047BFF7AFF000000DAFB000000DBF42282
:1001C000C00179FF74001202855006D9F7D0018072
:1001D000D0D00122C000C001751C801202B340299A
:1001E0002344A0C2E01202E2401CE54C1202E240AD
:1001F00015E54B1202E2400E900000E01202E240D0
:1002000005A3D51CF6C31202D2D001D0002274007F
:1002100031D45003D5F0F72275F096740051255073
:1002200003D5F0F722C000C001751C8051B34036E1
:100230002344A0F8C2E051E2402AE54C51E24024B8
:10024000E54B51E2401E51B3401AE8D2E051E24082
:06025000137116F0A91C59
:10025600B90104713F80067130A3D51CEEC351D29B
:10026600D001D000221202B340142344A0D2E012DF
:1002760002E2400712031612033FC31202D222C043
:10028600F0F5F01202B340222344A0C2E01202E2CB
:100296004015E54C1202E2400EE54B1202E2400721
:1002A600E5F012026B80031202D2D0F022D293D272
:1002B60092003092FD000030931030920D00C293F0
:1002C6000000000000C292C38001D322C293000046
:1002D600D2923092FD00000000D29322C0F075F059
:1002E6000833929300000000D29200000000309282
:1002F600FD0000C292D5F0E9D2930000D29230926E
:10030600FDA293C2920000000000000000D0F0227F
:10031600D293C0F075F008000000D2923092FDA290
:100326009333C292D5F0F0D0F022C29300D292302D
:1003360092FD00000000C29222D29300D292309227
:10034600FD00000000C29222C0F075F0FF12038D7E
:070356005007D5F0F8D0F0CC
:10035D0021A1D0F0221202B3402574002344A0C283
:10036D00E01202E24016E54C1202E2400FE54B129C
:10037D0002E24008E54F1202E24001C31202D2220E
:10038D001202B3402574002344A0C2E01202E240E1
:10039D0016E54C1202E2400FE54B1202E24008E571
:1003AD004F1202E24001C31202D222C0F075F0FFDB
:1003BD001203625007D5F0F8D0F021A1D0F022C081
:1003CD000179FF74001204915006D9F7D00121A1D3
:1003DD00D00122C000C001751C801204BF4029232A
:1003ED0044A0C2E01204EE401CE54C1204EE401590
:1003FD00E54B1204EE400E900000E01204EE4005B5
:10040D00A3D51CF6C31204DED001D00022740071F6
:10041D00E05003D5F0F72275F0967400913150033A
:10042D00D5F0F722C000C001751C8091BF40362366
:10043D0044A0F8C2E091EE402AE54C91EE4024E54F
:10044D004B91EE401E91BF401AE8D2E091EE401361
:10045D00B122F0A91CB90104B14B8006B13CA3D562
:10046D001CEEC391DED001D000221204BF40142334
:10047D0044A0D2E01204EE400712052212054BC330
:06048D001204DE22C0F0A3
:10049300F5F01204BF40222344A0C2E01204EE4050
:1004A30015E54C1204EE400EE54B1204EE4007E551
:1004B300F012047780031204DED0F022D291D2909E
:1004C300003090FD000030911030900D00C291007B
:1004D30000000000C290C38001D322C2910000D269
:1004E300903090FD00000000D29122C0F075F0081A
:1004F30033929100000000D290000000003090FD84
:100503000000C290D5F0E9D2910000D2903090FD66
:10051300A291C2900000000000000000D0F022D29F
:1005230091C0F075F008000000D2903090FDA291C8
:1005330033C290D5F0F0D0F022C29100D290309027
:10054300FD00000000C29022D29100D2903090FDB5
:1005530000000000C29022C0F075F0FF1205995010
:1005630007D5F0F8D0F021A1D0F0221204BF402526
:1005730074002344A0C2E01204EE4016E54C1204BA
:10058300EE400FE54B1204EE4008E54F1204EE4037
:0905930001C31204DE221204BFB0
:10059C00402574002344A0C2E01204EE4016E54C42
:1005AC001204EE400FE54B1204EE4008E54F120426
:1005BC00EE4001C31204DE22C0F075F0FF12056E8E
:1005CC005007D5F0F8D0F021A1D0F022C082C08322
:1005DC00854B82854C83A385834C85824BD083D0FD
:0205EC00822269
:00000001FF
