:030000000201D822
:0C01D800787FE4F6D8FD75811E02021F3E
:10039F00040800000000100D000000000000000025
:0803AF00000000000000000046
:0E03E600E4FFFE0FBF00010EBE03F8BFE8F5F6
:0103F40022E6
:1003B800C3E51E9430E51D648094F5500A051EE5DA
:0703C8001E70ED051D80E928
:0103CF00220B
:10038500900000AF82AE83E4FCFD7B507AC3F9F8A0
:09039500D31203D04003A380EA57
:01039E00223C
:03000B0002033EAF
:10033E00C0E0C28D050CE50C64147032F50CE50DB1
:10034E006002050EE50F60020510E5116002051250
:10035E00E51360020514E51560020516E517600247
:10036E000518E5196002051AE51B6002051C758C5F
:07037E003C758AAFD0E032AC
:1002E400E58954F04401F589758C3C758AAFD2A92F
:1002F400D28CD2AFD294D295D296D297D290D291B8
:10030400D292D293D2B7C2B2C290120385D2B2D2E1
:1003140090C291C2B3120385D291C292D2B3C2B435
:10032400120385D292C293D2B4C2B5120385D2937A
:0A033400D2B512026412000E80F828
:10026400209414E50F7010D290D2B2F508F510F571
:100274000FF50EF50D8009E50864026003750801A9
:10028400209514E5137010D291D2B3F509F514F545
:1002940013F512F5118009E509640260037509017B
:1002A400209614E5177010D292D2B4F50AF518F519
:1002B40017F516F5158009E50A64026003750A014D
:1002C400209713E51B700FD293D2B5F50BF51CF5EF
:1002D4001BF51AF51922E50B64026003750B012264
:10000E00E5086401706DE50D6063C2B0C2B1120304
:10001E00E6E4FCFDE50F703DC3ED94E8EC648094DE
:10002E008350080DBD00010C20B7ED20B712D2B2DF
:10003E00D290750802E4F50DF50EF50FF51080332C
:10004E00E50EC39405402CC290C2B2750F01E4F5C3
:10005E000EF510801EE510C394054017D290D2B253
:10006E00E4F508F510F50FF50EF50D8006750D018A
:10007E00E4F50EE5096401706DE5116063D2B0C25E
:10008E00B11203E6E4FCFDE513703DC3ED94E8EC1C
:10009E006480948350080DBD00010C20B7ED20B78D
:1000AE0012D2B3D291750902E4F511F512F513F5DA
:1000BE00148033E512C39405402CC291C2B375135C
:1000CE0001E4F512F514801EE514C394054017D211
:1000DE0091D2B3E4F509F514F513F512F511800676
:1000EE00751101E4F512E50A6401706DE5156063A2
:1000FE00C2B0D2B11203E6E4FCFDE517703DC3EDCC
:10010E0094E8EC6480948350080DBD00010C20B778
:10011E00ED20B712D2B4D292750A02E4F515F51697
:10012E00F517F5188033E516C39405402CC292C21C
:10013E00B4751701E4F516F518801EE518C394057D
:10014E004017D292D2B4E4F50AF518F517F516F564
:10015E00158006751501E4F516E50B6401706AE568
:10016E00196060D2B0D2B11203E6E4FCFDE51B705B
:10017E003BC3ED94E8EC6480948350080DBD000100
:10018E000C20B7ED20B711D2B5D293750B02E4F562
:10019E0019F51AF51BF51C22E51AC39405402AC25F
:1001AE0093C2B5751B01E4F51AF51C22E51CC39428
:1001BE00054016D293D2B5E4F50BF51CF51BF51AD6
:0901CE00F51922751901E4F51A76
:0101D7002205
:1001E4000202E4E493A3F8E493A34003F68001F24B
:1001F40008DFF48029E493A3F85407240CC8C3331C
:10020400C4540F4420C8834004F456800146F6DFEA
:10021400E4800B010204081020408090039FE47ED8
:10022400019360BCA3FF543F30E509541FFEE493DF
:10023400A360010ECF54C025E060A840B8E493A3A6
:10024400FAE493A3F8E493A3C8C582C8CAC583CAD1
:10025400F0A3C8C582C8CAC583CADFE9DEE780BE89
:0103B7000045
:1003D000EB9FF5F0EA9E42F0E99D42F0EC6480C8A4
:0603E00064809845F02244
:00000001FF
