:03000000020100FA
:0100030032CA
:01000B0032C2
:0100130032BA
:01001B0032B2
:01002B0032A2
:10010000D294D295D2B5D2B412023520B5FD30B515
:10011000FDD296D294D295120235C294C2951202A3
:10012000352096EFC294C295758920758DFD75981E
:1001300050D28E3098FDE599C298C28EB4010280EB
:10014000024115C294D295751B00751A007FA32039
:10015000B5FDC2B4781F7E5A758920758DFD7598DE
:1001600050D28E3098FDE599C298C28EF608DEE82E
:100170007E5A781FE6F51E1205D612064C08DEF4EC
:10018000D2B430B5FDDFC8751BFF751AF0751E10AF
:100190001205D6751BFF751AF1751E111205D6755D
:1001A0001BFF751AF2751E121205D6751BFF751A04
:1001B000F3751E131205D6751BFF751AF8751E1000
:1001C0001205D6751B39751A0512044C751BFF757F
:1001D0001AF4F51E1205D6751B39751A0612044C51
:1001E000751BFF751AF5F51E1205D6751B39751AA4
:1001F0000712044C751BFF751AF6F51E1205D6750D
:100200001B39751A0812044C751BFF751AF7F51E79
:100210001205D6800BB40206D294C29580028000EB
:10022000D294C295120235C294D2951202353096FC
:10023000EF211380FE7BFF7AFF000000DAFB000055
:1002400000DBF4227AFF000000DAFB22C00179FF14
:10025000740012030D5002D9F7D00122C000C00172
:1002600075188012033B40292344A0C2E012036AA0
:10027000401CE51B12036A4015E51A12036A400E82
:10028000900000E012036A4005A3D518F6C31203DC
:100290005AD001D000227400515C5003D5F0F722EF
:1002A00075F096740051AD5003D5F0F722C000C030
:1002B00001751880713B40362344A0F8C2E0716A92
:1002C000402AE51B716A4024E51A716A401E713BA1
:1002D000401AE8D2E0716A4013719EF0A918B90182
:1002E0000471C7800671B8A3D518EEC3715AD00146
:1002F000D0002212033B40142344A0D2E012036A30
:10030000400712039E1203C7C312035A22C0F0F51E
:10031000F012033B40222344A0C2E012036A4015BE
:10032000E51B12036A400EE51A12036A4007E5F066
:100330001202F3800312035AD0F022D293D2920019
:100340003092FD000030931030920D00C2930000F7
:10035000000000C292C38001D322C2930000D29257
:100360003092FD00000000D29322C0F075F00833F7
:0C037000929300000000D29200000000F8
:10037C003092FD0000C292D5F0E9D2930000D292E7
:10038C003092FDA293C2920000000000000000D049
:10039C00F022D293C0F075F008000000D292309297
:1003AC00FDA29333C292D5F0F0D0F022C29300D2CA
:1003BC00923092FD00000000C29222D29300D292A1
:1003CC003092FD00000000C29222C0F075F0321293
:1003DC0004115003D5F0F8D0F02212033B402574E1
:1003EC00002344A0C2E012036A4016E51B12036A04
:1003FC00400FE51A12036A4008E51E12036A400119
:10040C00C312035A2212033B402574002344A0C29A
:10041C00E012036A4016E51B12036A400FE51A123C
:10042C00036A4008E51E12036A4001C312035A22F4
:10043C00C0F075F00F1203E65003D5F0F8D0F0229F
:10044C00C00179FF740012050D5002D9F7D00122BA
:10045C00C000C00175188012053B40292344A0C27E
:10046C00E012056A401CE51B12056A4015E51A12DC
:10047C00056A400E900000E012056A4005A3D518ED
:10048C00F6C312055AD001D000227400915C5003BF
:04049C00D5F0F7227E
:1004A00075F096740091AD5003D5F0F722C000C0EE
:1004B00001751880B13B40362344A0F8C2E0B16A10
:1004C000402AE51BB16A4024E51AB16A401EB13BDF
:1004D000401AE8D2E0B16A4013B19EF0A918B90100
:1004E00004B1C78006B1B8A3D518EEC3B15AD00184
:1004F000D0002212053B40142344A0D2E012056A2A
:10050000400712059E1205C7C312055A22C0F0F516
:10051000F012053B40222344A0C2E012056A4015B8
:10052000E51B12056A400EE51A12056A4007E5F060
:100530001204F3800312055AD0F022D291D2900017
:100540003090FD000030911030900D00C2910000FD
:10055000000000C290C38001D322C2910000D2905B
:100560003090FD00000000D29122C0F075F00833F9
:10057000929100000000D290000000003090FD0039
:1005800000C290D5F0E9D2910000D2903090FDA247
:1005900091C2900000000000000000D0F022D29133
:0D05A000C0F075F008000000D2903090FD12
:1005AD00A29133C290D5F0F0D0F022C29100D2903A
:1005BD003090FD00000000C29022D29100D2903008
:1005CD0090FD00000000C29022C0F075F0321206BE
:1005DD00115003D5F0F8D0F02212053B40257400E0
:1005ED002344A0C2E012056A4016E51B12056A40BD
:1005FD000FE51A12056A4008E51E12056A4001C38F
:10060D0012055A2212053B402574002344A0C2E076
:10061D0012056A4016E51B12056A400FE51A120510
:10062D006A4008E51E12056A4001C312055A22C030
:10063D00F075F00F1205E65003D5F0F8D0F022C09A
:10064D0082C083851A82851B83A385831B85821AAD
:05065D00D083D08222D1
:00000001FF
