:03000000020100FA
:0100030032CA
:01000B0032C2
:0100130032BA
:01001B0032B2
:01002B0032A2
:10010000D294D295D295B2941201B22096F6C294AE
:100110001201B2754C00754B001203CDF4F54F126D
:10012000034F1205D9E54CB4F1EF754CFF754BF058
:10013000754F1012034F754CFF754BF1754F11122F
:10014000034F754CFF754BF2754F1212034F754CF0
:10015000FF754BF3754F1312034F754CFF754BF43E
:10016000754F0112034F754CFF754BF5754F021219
:10017000034F754CFF754BF6754F0312034F754CCB
:10018000FF754BF7754F0412034F754CFF754BF815
:10019000754FAA12034FD294B2951201B23096F65F
:1001A0002104D294D295B294B2951201B23096F64F
:1001B00021047BFF7AFF000000DAFB000000DBF483
:1001C00022C00179FF74001202865006D9F7D001CF
:1001D00080D0D00122C000C001751C801202B44042
:1001E000292344A0C2E01202E3401CE54C1202E3C2
:1001F0004015E54B1202E3400E900000E01202E3CE
:100200004005A3D51CF6C31202D3D001D00022743E
:100210000031D55003D5F0F72275F09674005126C1
:100220005003D5F0F722C000C001751C8051B440C6
:10023000362344A0F8C2E051E3402AE54C51E340A4
:1002400024E54B51E3401E51B4401AE8D2E051E39B
:0502500040137117F0DE
:10025500A91CB90104714080067131A3D51CEEC3F8
:1002650051D3D001D000221202B440142344A0D2AD
:10027500E01202E34007120317120340C31202D330
:1002850022C0F0F5F01202B440222344A0C2E012CD
:1002950002E34015E54C1202E3400EE54B1202E382
:1002A5004007E5F012026C80031202D3D0F022D28F
:1002B50093D292003092FD000030931030920D00E1
:1002C500C2930000000000C292C38001D322C293F2
:1002D5000000D2923092FD00000000D29322C0F0BF
:1002E50075F00833929300000000D29200000000E0
:1002F5003092FD0000C292D5F0E9D2930000D2926F
:100305003092FDA293C2920000000000000000D0D0
:10031500F022D293C0F075F008000000D29230921E
:10032500FDA29333C292D5F0F0D0F022C29300D251
:10033500923092FD00000000C29222D29300D29228
:100345003092FD00000000C29222C0F075F0FF124D
:07035500038E5007D5F0F8FC
:10035C00D0F021A2D0F0221202B440257400234424
:10036C00A0C2E01202E34016E54C1202E3400FE596
:10037C004B1202E34008E54F1202E34001C31202A4
:10038C00D3221202B4402574002344A0C2E012020E
:10039C00E34016E54C1202E3400FE54B1202E3403A
:1003AC0008E54F1202E34001C31202D322C0F075DC
:1003BC00F0FF1203635007D5F0F8D0F021A2D0F073
:1003CC0022C00179FF74001204925006D9F7D001B3
:1003DC0021A2D00122C000C001751C801204C040B3
:1003EC00292344A0C2E01204EF401CE54C1204EF98
:1003FC004015E54B1204EF400E900000E01204EFA4
:10040C004005A3D51CF6C31204DFD001D000227422
:10041C000071E15003D5F0F72275F096740091321B
:10042C005003D5F0F722C000C001751C8091C0406C
:10043C00362344A0F8C2E091EF402AE54C91EF40FE
:10044C0024E54B91EF401E91C0401AE8D2E091EFA9
:10045C004013B123F0A91CB90104B14C8006B13D85
:10046C00A3D51CEEC391DFD001D000221204C040F2
:10047C00142344A0D2E01204EF4007120523120506
:06048C004CC31204DF2244
:10049200C0F0F5F01204C040222344A0C2E01204CE
:1004A200EF4015E54C1204EF400EE54B1204EF400D
:1004B20007E5F012047880031204DFD0F022D29113
:1004C200D290003090FD000030911030900D00C2AB
:1004D200910000000000C290C38001D322C29100AB
:1004E20000D2903090FD00000000D29122C0F07541
:1004F200F00833929100000000D29000000000301A
:1005020090FD0000C290D5F0E9D2910000D2903067
:1005120090FDA291C2900000000000000000D0F007
:1005220022D291C0F075F008000000D2903090FD08
:10053200A29133C290D5F0F0D0F022C29100D290B5
:100542003090FD00000000C29022D29100D2903083
:1005520090FD00000000C29022C0F075F0FF12056D
:100562009A5007D5F0F8D0F021A2D0F0221204C0A0
:10057200402574002344A0C2E01204EF4016E54C6B
:100582001204EF400FE54B1204EF4008E54F12044E
:08059200EF4001C31204DF2257
:10059A001204C0402574002344A0C2E01204EF40B4
:1005AA0016E54C1204EF400FE54B1204EF4008E544
:1005BA004F1204EF4001C31204DF22C0F075F0FFAE
:1005CA0012056F5007D5F0F8D0F021A2D0F022C062
:1005DA0082C083854B82854C83A385834C85824B5D
:0505EA00D083D0822245
:00000001FF
