:03000000020100FA
:0100030032CA
:01000B0032C2
:0100130032BA
:01001B0032B2
:01002B0032A2
:10010000D294D295D2B5D2B412018920B5FD30B5C2
:10011000FDC294C295758920758DFD759850D28E5B
:100120003098FDE599C298C28EB40146751B0075E2
:100130001A007FA320B5FDC2B4781F7E5A758920AE
:10014000758DFD759850D28E3098FDE599C298C294
:100150008EF608DEE87E5A781FE6F51E12052A1292
:1001600005A008DEF4D2B430B5FDDFC8D294C29544
:100170008015B40209B29512018980F98009B29400
:10018000B29512018980F780FE7BFF7AFF000000A4
:10019000DAFB000000DBF4227AFF000000DAFB2229
:1001A000C00179FF74001202615002D9F7D0012218
:1001B000C000C00175188012028F40292344A0C2DC
:1001C000E01202BE401CE51B1202BE4015E51A12E9
:1001D00002BE400E900000E01202BE4005A3D518FA
:1001E000F6C31202AED001D00022740031B0500329
:1001F000D5F0F72275F096740051015003D5F0F751
:1002000022C000C001751880518F40362344A0F8E9
:10021000C2E051BE402AE51B51BE4024E51A51BE42
:10022000401E518F401AE8D2E051BE401351F2F007
:02023000A9180B
:10023200B90104711B8006710CA3D518EEC351AE2F
:10024200D001D0002212028F40142344A0D2E01227
:1002520002BE40071202F212031BC31202AE22C0F8
:10026200F0F5F012028F40222344A0C2E01202BE37
:100272004015E51B1202BE400EE51A1202BE4007EF
:10028200E5F012024780031202AED0F022D293D2DE
:1002920092003092FD000030931030920D00C29314
:1002A2000000000000C292C38001D322C29300006A
:1002B200D2923092FD00000000D29322C0F075F07D
:1002C2000833929300000000D292000000003092A6
:1002D200FD0000C292D5F0E9D2930000D292309292
:1002E200FDA293C2920000000000000000D0F022A4
:1002F200D293C0F075F008000000D2923092FDA2B5
:100302009333C292D5F0F0D0F022C29300D2923051
:1003120092FD00000000C29222D29300D29230924B
:10032200FD00000000C29222C0F075F03212036597
:070332005003D5F0F8D0F0F4
:100339002212028F402574002344A0C2E01202BE9B
:100349004016E51B1202BE400FE51A1202BE400814
:10035900E51E1202BE4001C31202AE2212028F40F4
:100369002574002344A0C2E01202BE4016E51B1208
:1003790002BE400FE51A1202BE4008E51E1202BE77
:100389004001C31202AE22C0F075F00F12033A50B9
:1003990003D5F0F8D0F022C00179FF74001204618E
:1003A9005002D9F7D00122C000C00175188012048B
:1003B9008F40292344A0C2E01204BE401CE51B1251
:1003C90004BE4015E51A1204BE400E900000E0126A
:1003D90004BE4005A3D518F6C31204AED001D0005F
:1003E90022740071B05003D5F0F72275F0967400AD
:1003F90091015003D5F0F722C000C0017518809112
:100409008F40362344A0F8C2E091BE402AE51B91F3
:10041900BE4024E51A91BE401E918F401AE8D2E0F1
:1004290091BE401391F2F0A918B90104B11B8006DD
:10043900B10CA3D518EEC391AED001D0002212049D
:100449008F40142344A0D2E01204BE40071204F2E4
:1004590012051BC31204AE22C0F0F5F012048F403E
:06046900222344A0C2E0C2
:10046F001204BE4015E51B1204BE400EE51A12041D
:10047F00BE4007E5F012044780031204AED0F0220D
:10048F00D291D290003090FD000030911030900D3D
:10049F0000C2910000000000C290C38001D322C2AD
:1004AF00910000D2903090FD00000000D29122C048
:1004BF00F075F00833929100000000D29000000018
:1004CF00003090FD0000C290D5F0E9D2910000D22B
:1004DF00903090FDA291C29000000000000000003B
:1004EF00D0F022D291C0F075F008000000D2903009
:1004FF0090FDA29133C290D5F0F0D0F022C29100BE
:10050F00D2903090FD00000000C29022D29100D214
:10051F00903090FD00000000C29022C0F075F032C4
:10052F001205655003D5F0F8D0F02212048F402544
:10053F0074002344A0C2E01204BE4016E51B12044F
:10054F00BE400FE51A1204BE4008E51E1204BE405D
:10055F0001C31204AE2212048F402574002344A05D
:09056F00C2E01204BE4016E51BB7
:100578001204BE400FE51A1204BE4008E51E12041C
:10058800BE4001C31204AE22C0F075F00F12053A46
:100598005003D5F0F8D0F022C082C083851A828536
:0E05A8001B83A385831B85821AD083D08222F9
:00000001FF
